:020000040800F2
:10000000180A002099010008FD2400089F2000081C
:100010008D230008A1050008552B000800000000F2
:10002000000000000000000000000000A5250008FE
:100030005D06000800000000A3250008F92500085F
:10004000B3010008B3010008B3010008B3010008C0
:10005000B3010008B3010008B3010008B3010008B0
:10006000B3010008B3010008B3010008B3010008A0
:10007000B3010008B3010008B3010008B301000890
:10008000B3010008B3010008B3010008B301000880
:10009000B3010008B3010008B3010008B301000870
:1000A000B301000879260008B3010008B301000875
:1000B000B3010008B3010008B3010008B301000850
:1000C000B3010008B3010008B3010008B301000840
:1000D000B3010008B3010008492B0008B301000870
:1000E000B3010008B3010008B301000800F002F8F2
:1000F00000F043F80AA090E8000C82448344AAF17F
:100100000107DA4501D100F038F8AFF2090EBAE87C
:100110000F0013F0010F18BFFB1A43F0010318473B
:10012000A4320000C4320000103A24BF78C878C15D
:10013000FAD8520724BF30C830C144BF04680C60ED
:10014000704700000023002400250026103A28BF35
:1001500078C1FBD8520728BF30C148BF0B60704739
:100160001FB500F0E5F804000020002102F0C6FDF4
:10017000401C60601FBD10B510BD00F02CF9114689
:10018000FFF7EEFF02F058FD00F058F903B4FFF757
:10019000F2FF03BC00F09CF909488047094800477A
:1001A000FEE7FEE7FEE7FEE7FEE7FEE7FEE7FEE727
:1001B000FEE7FEE704480549054A064B7047000084
:1001C00075260008ED00000818040020180A002019
:1001D000180600201806002070B5064600F060F8EA
:1001E0000468054630460A22002100F05DF82C60C4
:1001F00070BD401ECAB210F8011F8A4202D0002909
:10020000F9D1002070474FF000020429C0F012809D
:1002100010F0030C00F01B80CCF1040CBCF1020FB9
:1002200018BF00F8012BA8BF20F8022BA1EB0C018E
:1002300000F00DB85FEAC17C24BF00F8012B00F884
:10024000012B48BF00F8012B70474FF0000200B5AA
:10025000134694469646203922BFA0E80C50A0E8E9
:100260000C50B1F12001BFF4F7AF090728BFA0E897
:100270000C5048BF0CC05DF804EB890028BF40F863
:10028000042B08BF704748BF20F8022B11F0804FA5
:1002900018BF00F8012B7047704770477047000087
:1002A00000487047B40300202DE9F04791460F46FF
:1002B00080460446002614F8015B2DB100F030F8AA
:1002C0000068405DC007F6D12B2D02D02D2D18D02F
:1002D000641E4A463946204600F02EF827B1396898
:1002E000A14201D1C7F800804FF0020471050BD57F
:1002F0004042002803DDFFF7D3FF0460A007BDE8FC
:10030000F08746F48066E4E70028F8DAFFF7C8FFD4
:1003100004606FF00040F2E700487047B40300202B
:1003200010B500F005F8001D10BD00BFD129000078
:1003300000487047D40300202DE9F05F824615463F
:100340008B4600270AF10104B9460078302801D015
:100350009DB113E014F8010B0127782803D0582829
:1003600001D045B10AE00DB1102D07D1002714F8D6
:10037000010B102502E0082500E00A250026B04602
:100380000EE005FB080005FB06F101271FFA80F8C7
:1003900001EB1046B6F5803F00D3B94614F8010BC7
:1003A000294600F03DF80028EBDABBF1000F05D03C
:1003B0000FB1641E00E05446CBF80040B9F1000FC5
:1003C00006D0FFF76DFF02210160C81EBDE8F09F57
:1003D00048EA0640FAE77546FFF79EFFAE4605007D
:1003E0006946534620F00700854618B020B5FFF750
:1003F000E1FEBDE820404FF000064FF000074FF04F
:1004000000084FF0000B21F00701AC46ACE8C00932
:10041000ACE8C009ACE8C009ACE8C0098D4670473B
:100420003A2800D2303820F02002412A01D3A2F12C
:100430003700884201D34FF0FF30704710B50446B3
:10044000AFF300802046BDE81040FFF79FBE0000DC
:100450004FF0013C50F8042B51F8043B9A4221D153
:10046000A2EB0C03934313EACC1317D150F8042BDF
:1004700051F8043B9A4215D1A2EB0C03934313EAC3
:10048000CC130BD150F8042B51F8043B9A4209D1FC
:10049000A2EB0C03934313EACC13DBD04FF0000024
:1004A000704700BFD01A01BAB1FA81F101F018010A
:1004B00022FA01F0CB40C1F12001DBB2C0B2C01A78
:1004C0002CFA01F3D11A914311EAC311E6D1704716
:1004D00001491820ABBEFEE726000200704700006D
:1004E00070B5044600688168C943C90717D181689F
:1004F00021F00101816000F045FC05460AE000BFE3
:1005000000F040FC401B022804D920688068C043EA
:10051000C00706D020688068C043C007F0D0002024
:1005200070BDA06A40F01000A062E06A40F00100D7
:10053000E062012070BD00001FB54FF40040104C78
:100540004110CDE90041CDE902400C230D4A0E498E
:100550000E4801F02DFFA0144100CDE90041CDE986
:1005600002400823074A0A490A4801F021FF0A48C5
:1005700000F0C0F804B00948BDE8104002F0ECBA41
:10058000000C0140440200208C020020C400002026
:10059000FC010020540100201C030020D402002094
:1005A000FEE700002DE9FC411A4C1B4D1B4E1C4F71
:1005B000CDE900543346002239461A4801F0E4FFE1
:1005C000CDE90054334600223946174801F0DCFFDC
:1005D000CDE9005400231A461449154801F0D4FF10
:1005E000144C154D154EDFF85880CDE900544FF0EE
:1005F0007D5733463A464146124801F0C5FFCDE9E2
:10060000005433463A4641460F4801F0BDFFBDE86D
:10061000FC8100000000A0C30000A0438FC2F53C95
:10062000CDCC4C3D94000020F40000200000484256
:100630002401002000007AC400007A44A69B443CB8
:1006400000000841340000206400002010B502F0D2
:10065000B7FC0149C86010BD94000020704772B615
:10066000FEE700002DE9F05F0027DFF86480DFF887
:1006700064B0DFF864A0DFF864903E463C4600BFFB
:1006800038F8140002F0B4FC594602F0F6FD0546B5
:10069000504500D3002559F82410284602F0F0FCFC
:1006A000394602F041FB07462946304602F03CFB42
:1006B000641C0646082CE3DBB6F17C5F02DA0020FE
:1006C000BDE8F09F01463846BDE8F05F02F09ABBF6
:1006D0006403002000F07F4500008080A433000800
:1006E000082803D2024931F81000704700207047F3
:1006F0006403002010B50A490022044688608A80FD
:100700000A70CA600A6110210648FFF77CFD04499F
:1007100020460122BDE81040891C01F057BC0000B2
:1007200020000020640300202DE9F041032934D388
:100730000278242A31D1427801241A4D442A19D052
:10074000412A2AD10026DFF86080801C3A21FFF779
:1007500050FD08B3401C0746FFF73EFD28F8160081
:100760002C213846FFF745FDB0B1401C761C082E01
:10077000ECDB11E00B4E002216F10C0602EB8203BB
:100780009B1D9BB28B4204D2C35C312B07D000234C
:10079000B354521C082AF1DB2C70BDE8F081012310
:1007A000F6E7000020000020640300201CB50CA325
:1007B000D3E90023CDE9002308B1312000E0302047
:1007C0008DF8030009B1312000E030208DF80500DC
:1007D0000548642307226946806801F00FFC1CBDB0
:1007E00024302C302C3023002000002070B5144C15
:1007F0000025144AA078242816D0617861B1A18818
:10080000402902D25054491CA180232811D088B21B
:10081000402801D36570A580A068BDE870400849F4
:100820000122891C01F0D2BB012161701070A180EE
:10083000F2E7657089B20348FFF776FFEBE7000047
:100840002000002074030020F8B50024009490F8E4
:1008500024202546012A12D0012280F824204A684B
:100860001F23072A0DD20668776B521E02EB820205
:1008700093409F430B6893401F43776319E0022026
:10088000F8BD06680D2A0AD2376BD21F02EB82022E
:1008900093409F430B6893401F43376309E0F76A17
:1008A0000D3A02EB820293409F430B6893401F4333
:1008B000F7620A68072306680A2A0AD3F7680A3A21
:1008C00002EB420293409F438B6893401F43F760C3
:1008D00008E0376902EB420293409F438B689340E4
:1008E0001F4337610A68102A01D0112A20D1124B08
:1008F00002689A4217D193681B0219D4936843F493
:10090000000393600968102912D10C490C4A096848
:10091000B1FBF2F101EB8101490000E0491E0091B9
:100920000029FBD104E0816A41F0200181620124A9
:1009300080F824502046F8BD002401401800002013
:1009400040420F002DE9F0414FF0000704003D4602
:100950007ED0A06A002628B9E66284F8246020468A
:1009600000F07EF82046FFF7BBFDA16AC90600D45F
:1009700020B1A06A40F01000A06269E0A16A21F4F1
:10098000885141F00201A1626268E169237B0A4358
:1009900047EA43010A43A1684FF48077B94209D07E
:1009A000012907D05FF0000194F814C0BCF1010FD9
:1009B00002D00AE03946F7E7F3B1A36A43F0200317
:1009C000A362E36A43F00103E3622368D3F804C03F
:1009D0002CF4694C4CEA010CC3F804C021688B6804
:1009E000DFF870C003EA0C0313438B60A168B942BF
:1009F0000BD0012909D00CE0DFF85CC0A3690CEB37
:100A000043330B4343F40061DFE7218A0D05A5F56D
:100A100080152168CB6A23F470032B43CB622168D5
:100A200089680E4B1940914208D1E662A16A21F013
:100A3000020141F00101A162BDE8F081A06A20F04D
:100A4000020040F01000A062E06A40F00100E062A5
:100A50000120F1E7FDF7E1FF00E0FFFFFE0E1FFFC1
:100A600000B585B0002100910191029103910068C9
:100A70000E49884218D10E48816941F400718161A4
:100A8000816901F400710491816941F0040181617F
:100A90008069694600F00400049040200090032023
:100AA0000190044800F078F805B000BD0024014032
:100AB000001002400008014010B590F821100022FB
:100AC000022905D00421816380F82020012010BD77
:100AD00001680B6823F00E030B6001680B6823F0BC
:100AE00001030B6090F84030C46B012101FA03F35D
:100AF000636080F8211080F82020104610BD0000AF
:100B000010B590F821100024022903D0042181633C
:100B100001243DE001680A6822F00E020A600168C3
:100B20000A6822F001020A601A4A0168914201D162
:100B3000012121E0174A1432914201D110211BE01A
:100B4000144A2832914201D1891515E0114A3C32EC
:100B5000914201D189140FE00E4A5032914202D1E4
:100B60004FF4803108E00B4A6432914202D14FF4D5
:100B7000801101E04FF08071064A083A516001216E
:100B800080F82110002180F82010416B01B18847C6
:100B9000204610BD080002402DE9F84FDFF8B8915B
:100BA0000024A9F1040B23460F2709F1040AABF135
:100BB000040EC9E00125A5402A40AA427DD1674E16
:100BC000D1F804C0ACEB0608B44532D014DCBCF15B
:100BD000030F3AD009DCBCF1000F2AD0BCF1010FA1
:100BE0001CD0BCF1020F31D11DE0BCF1110F17D0A8
:100BF000BCF1120F2AD119E0B8F5881F19D006DC14
:100C0000B8F5803F15D0B8F5801F1FD111E0B8F5B9
:100C1000001F0ED0B8F5041F18D10AE0CB6815E00C
:100C2000CB681B1D12E0CB6808330FE0CB680C3398
:100C30000CE08B682BB1012B4FF0080303D045610A
:100C400004E0042302E0056100E00023FF2A01D84C
:100C5000064601E000F104064FEA840501D9A5F13A
:100C60002005D6F8008007FA05FC28EA0C0803FAEC
:100C700005F548EA0508C6F800804D68ED0062D524
:100C8000374DAE6946F00106AE61AD6924F003064A
:100C900005F001050095334D06EB050CDCF8085016
:100CA000A607360F07FA06F825EA0805DFF8B88028
:100CB000404503D14FF0000817E044E0DFF8AC8076
:100CC000404502D14FF001080FE0DFF8A480404515
:100CD00002D14FF0020808E0DFF89880404502D1C9
:100CE0004FF0030801E04FF0040808FA06F848EA5C
:100CF0000508CCF808804D68D9F80060ED024D4633
:100D000001D5164300E096432E604D68DAF8006086
:100D1000AD02554601D5164300E096432E604D685E
:100D2000DBF80060AD035D4601D5164300E0964355
:100D30002E604D68DEF80060ED03754601D5164360
:100D400000E096432E60641C0D682A46E5407FF45F
:100D500031AFBDE8F88F0000080401400000111019
:100D6000001002400000014000080140000C01405A
:100D700000100140001401400AB1016170470904EC
:100D8000FBE7000001488068704700000C0000206D
:100D90000248816802781144816070470C0000208D
:100DA000074810B5016841F010010160032000F010
:100DB00075F80F2000F006F800F024F8002010BDB0
:100DC0000020024070B50D4D04464FF47A7128782A
:100DD000B1FBF0F00A490968B1FBF0F000F052FBFA
:100DE00048B9102C07D200222146501E00F036F8D8
:100DF00000206C6070BD012070BD00000C00002060
:100E0000180000200C4808B5816941F0010181619A
:100E1000816901F001010091C16941F08051C16116
:100E2000C06900F0805000900448416821F0E06102
:100E300041F00071416008BD001002400000014017
:100E4000002809DB00F01F020121914040098000C9
:100E500000F1E020C0F8001170470000F0B40E4B24
:100E60001B680C46C3F30223C3F10705042D00D908
:100E70000425191D072901D2002300E0DB1E0126ED
:100E800006FA05F1491E214099409E40761E164003
:100E90003143F0BC01F066BE0CED00E0064900F005
:100EA000070208684FF6FF03184040EA0220034A91
:100EB00010430860704700000CED00E00000FA05E8
:100EC0002DE9F84305460078354CC00754D0E06959
:100ED0000026C00008D4E06940F08050E061E0697D
:100EE000012600F0805000902E480168C90512D4F8
:100EF0000168804641F480710160FFF743FF0746B7
:100F000005E000BFFFF73EFFC01B642823D8D8F8D8
:100F10000000C005F6D5206A10F4407021D0A988E1
:100F200001F4407181421CD0206A1F49012220F443
:100F300040700A6000220A602062C00711D0FFF7EB
:100F400021FF074641F2883808E000BFFFF71AFF8B
:100F5000C11B414502D90320BDE8F883206A800700
:100F6000F4D5206A696820F44070084320621EB1FD
:100F7000E06920F08050E0612878800705D560683E
:100F8000A96820F44040084360602878C00605D571
:100F90006068E96820F48000084360600020DBE7B7
:100FA0000010024000700040400442422DE9F0472A
:100FB0000F46050061D0434E306800F00700B8428C
:100FC00009D2306820F0070038433060306800F004
:100FD0000700B84251D128683B4C810712D5400721
:100FE00003D5606840F4E06060602878000703D5AE
:100FF000606840F4605060606068A96820F0F000AC
:10100000084360602878C00728D06868012810D09D
:101010002168022810D0890700292EDA616821F0A2
:10102000030101436160FFF7ADFE804641F288395C
:101030000DE021688903EFE78901EDE7FFF7A2FEE4
:10104000A0EB0801494502D90320BDE8F08760689C
:10105000696800F00C00B0EB810FEFD1306800F050
:101060000700B8420BD9306820F0070038433060E1
:10107000306800F00700B84201D00120E5E7287889
:10108000400705D56068E96820F4E06008436060C7
:101090002878000706D56068296920F4605040EA86
:1010A000C100606000F038F86168084AC1F30311BC
:1010B000515CC8400649086006480068FFF782FE98
:1010C0000020C2E700200240001002408C330008DC
:1010D00018000020100000200448054900684968F5
:1010E000044AC1F30221515CC84070471800002037
:1010F000001002409C330008044805490068496814
:10110000044AC1F3C221515CC84070471800002056
:10111000001002409C3300080E4A51680E4801F04E
:101120000C03042B11D0082B0FD10C48C1F38343BF
:10113000C903C05C0AD55168084AC1F34041921EF8
:10114000515C054A5043B0FBF1F0704704494843F5
:10115000704700000010024000127A007C33000843
:1011600000093D002DE9F84F040070D02078C04DF3
:10117000C00749D06868C0F38100012807D06868BB
:10118000C0F38100022809D16868C00306D5286829
:10119000800339D560680028E7D035E06068B0F595
:1011A000803F0BD010B1B0F5A02F11D0286820F4EB
:1011B00080302860286820F4802002E0286840F40D
:1011C00080302860606890B1FFF7DCFD06460AE0D9
:1011D000286840F480202860F0E700BFFFF7D2FDC8
:1011E000801B642873D828688003F7D50CE0FFF7CC
:1011F000C9FD064605E000BFFFF7C4FD801B64285B
:10120000F0D828688003F7D420789A4E80074FF0F2
:1012100001094FF0000839D5686810F00C0F07D0AD
:101220006868C0F38100022809D16868C00306D449
:101230002868800714D52069012808D110E02069AA
:10124000B0B1C6F80090FFF79DFD074605E00AE142
:10125000FFF798FDC01B0228C4D828688007F7D57F
:101260002868616920F0F80040EAC10028600DE0BC
:10127000C6F80080FFF786FD074604E0FFF782FD11
:10128000C01B022823D828688007F7D420780007DD
:101290002CD57948A169D9B1C0F80090FFF772FD4B
:1012A000074604E0FFF76EFDC01B02280FD8686AEE
:1012B0008007F7D571484FF4FA510068B0FBF1F0A0
:1012C000009000BF0098411E0091FAD20EE080E02D
:1012D000C0F80080FFF756FD074604E0FFF752FD17
:1012E000C01B022875D8686A8007F7D420784007A9
:1012F00060D5E8690027C00008D4E86940F0805054
:10130000E861E869012700F0805000905C480168BE
:10131000C90513D40168834641F480710160FFF769
:1013200031FD824606E000BFFFF72CFDA0EB0A006E
:1013300064284ED8DBF80000C005F5D5E068012828
:101340000AD008B1052813D0286A20F001002862CD
:10135000286A20F0040002E0286A40F001002862B8
:10136000E06841F2883B98B1FFF70CFD82460BE044
:10137000286A40F004002862EEE700BFFFF702FD94
:10138000A0EB0A0159455AD8286A8007F6D50CE027
:10139000FFF7F8FC824605E0FFF7F4FCA0EB0A013A
:1013A00059454CD8286A8007F6D41FB1E86920F067
:1013B0008050E861E06988B36968C1F3810102295E
:1013C00044D00228C6F8608004D0FFF7DBFC044656
:1013D00038E034E0FFF7D6FC074604E0FFF7D2FC24
:1013E000C01B02282BD828688001F7D4206AB0F5EA
:1013F000803F05D16868A16820F400300843686028
:10140000D4E908010843696821F47411084368604D
:10141000C6F86090FFF7B6FC044606E025E000BF82
:10142000FFF7B0FC001B022809D828688001F7D517
:101430001BE000BFFFF7A6FC001B022802D9032017
:10144000BDE8F88F28688001F4D40EE00128F7D0B9
:101450006868226A00F48031914204D1616A00F424
:101460007010884201D00120EAE70020E8E7000080
:101470000010024000004242800442421800002056
:101480000070004010B5401EB0F1807F01D30120F4
:1014900010BD4FF0E02460610F21601701F062FB86
:1014A0000020A06107202061002010BD7047704718
:1014B00070B590F83C20012A26D0012480F83C40E9
:1014C000022280F83D2003685A689D6822F0700669
:1014D0000A6832435A600D4B02689A4208D0B2F152
:1014E000804F05D00A4B9A4202D00A4B9A4204D14F
:1014F000496825F080031943916080F83D40002140
:1015000080F83C10084670BD022070BD002C0140E0
:10151000000400400008004010B5040003D094F817
:101520003D0010B107E0012010BD002084F83C0010
:10153000204600F01FF8022084F83D00211D20689D
:1015400001F0A0F8012084F8460084F83E0084F8F9
:101550003F0084F8400084F8410084F8420084F899
:10156000430084F8440084F8450084F83D000020DE
:1015700010BD000008B500680B49884212D10B4825
:10158000816941F4006181618069002200F400609A
:10159000009011461920FFF761FCBDE808401920B2
:1015A000FFF74EBC08BD0000002C014000100240B7
:1015B00090F83D10012901D001207047022180F8E8
:1015C0003D100168CA6842F00102CA6000680B4918
:1015D000884208D0B0F1804F05D00949884202D036
:1015E0000849884204D1816801F00701062903D027
:1015F000016841F00101016000207047002C0140AA
:10160000000400400008004070B5044690F83C001B
:101610000025012817D0012684F83C60022084F8B8
:101620003D002068826822F0770222F47F428260C7
:101630000868502838D00DDC20284FD005DC90B346
:10164000102811D14AE0022070BD302846D0402831
:101650000AD13BE060282FD070280DD0B0F5805F14
:1016600003D0B0F5005F12D0012584F83D60002062
:1016700084F83C00284670BDCB68D1E90121206880
:1016800001F049F82068816841F0770109E0CB68F2
:10169000D1E90121206801F03EF82068816841F419
:1016A00080418160E1E719E0CA684968206801F07B
:1016B000E7F85021206806E0CA684968206801F010
:1016C000F0F86021206801F030F8CEE7CA68496878
:1016D000206801F0D5F840212068F4E7226801462F
:1016E0001046F0E72DE9F0410D46040003D094F8D0
:1016F0003D0018B108E00120BDE8F081002084F829
:101700003C00204600F040F8022084F83D002068AC
:10171000816844F2070291438160211D206800F036
:10172000B1FF226890689169166A2B68AF6903431C
:1017300040F20330814341EA0721A868EF6908437A
:101740004FF6FC418843E96840EA072001432869D5
:101750002F6A000140EA0730084369686D6926F086
:10176000220646EA0515294393602268906154F8E1
:10177000460B0162012004F81F09E0752076E0762F
:101780002077A0750020B7E700B585B00021009153
:1017900001910291039101681A48B1F1804F1BD069
:1017A000194A914216D1C16941F00401C161C16970
:1017B00001F004010491816941F0080181618069AF
:1017C000694600F008000490C02000900F4800BF58
:1017D000FFF7E2F905B000BDC16941F00101C16147
:1017E000C16901F001010491816941F00401816145
:1017F0008069694600F004000490032000900448CA
:10180000E6E700000010024000080040000C014024
:101810000008014070B590F83E60044690F83F50D3
:1018200090F8423090F84320022021B104290ED0D4
:10183000012E1BD114E0012E18D1012B16D184F8F2
:101840003E0084F8420001220021206820E0012DA2
:101850000CD1012A0AD184F83F0084F8430014E037
:10186000012D03D1012B01D1012A01D0012070BD2E
:1018700084F83E0084F83F0084F8420084F8430076
:1018800001220021206800F039FF01220421206894
:1018900000F034FF2068016841F001010160002080
:1018A00070BD70472DE9F04104460068C6680569BF
:1018B0004FF00007A90713D5B10711D5F91E016133
:1018C00001202077206880698007204602D0FFF73A
:1018D000E8FF04E000F0A4F8204600F049F927777B
:1018E000680716D5700714D521686FF004000861E9
:1018F000022020772068806910F4407F204602D0C3
:10190000FFF7CFFF04E000F08BF8204600F030F93D
:101910002777280715D5300713D521686FF0080001
:101920000861042020772068C0698007204602D023
:10193000FFF7B7FF04E000F073F8204600F018F955
:101940002777E80616D5F00614D521686FF0100049
:101950000861082020772068C06910F4407F204685
:1019600002D0FFF79EFF04E000F05AF8204600F096
:10197000FFF82777E80708D0F00706D021686FF056
:1019800001000861204600F043F9280608D530061A
:1019900006D521686FF0800008612046FFF786FDBC
:1019A000680608D5700606D521686FF0400008610A
:1019B000204600F039F9A8060AD5B00608D52168F6
:1019C0006FF0200008612046BDE8F041FFF76FBDD1
:1019D000BDE8F08100B585B0002100910191029130
:1019E000039100680B49884211D10B48816941F08D
:1019F000080181618069694600F0080004900320B5
:101A000000900220019003900448FFF7C5F805B04C
:101A100000BD00000004004000100240000C014026
:101A2000704770B5044690F83C0000260D4601282A
:101A30000FD0012084F83C006AB1042A1DD0082A86
:101A40002FD00C2A3FD00126002084F83C003046DD
:101A500070BD022070BD206800F070FE20688169B2
:101A600041F0080181612068816921F004018161F0
:101A7000206881692A69114311E0206800F086FE20
:101A80002068816941F4006181612068816921F4E5
:101A900080618161206881692A6941EA022181614E
:101AA000D2E7206800F09EFE2068C16941F008017D
:101AB000C1612068C16921F00401C1612068C16968
:101AC0002A69114311E0206800F0B8FE2068C1695E
:101AD00041F40061C1612068C16921F48061C16184
:101AE0002068C1692A6941EA0221C161ACE710B5E9
:101AF000040003D094F83D0010B107E0012010BDB0
:101B0000002084F83C00204600F01EF8022084F8F3
:101B10003D00211D206800F0B5FD012084F846003D
:101B200084F83E0084F83F0084F8400084F84100C7
:101B300084F8420084F8430084F8440084F84500A7
:101B400084F83D00002010BD08B5006806498842B1
:101B500008D10648C16941F00201C161C06900F0C5
:101B60000200009008BD0000000400400010024088
:101B70007047000010B50446022249B104290ED076
:101B8000082913D094F84100012816D0012010BD77
:101B900094F83E000128F9D184F83E200FE094F833
:101BA0003F000128F2D184F83F2008E094F840007B
:101BB0000128EBD184F8402001E084F84120012283
:101BC000206800F09BFD0F492068884203D1426CD9
:101BD00042F4004242642068884208D0B0F1804F4D
:101BE00005D00949884202D00849884204D1816859
:101BF00001F00701062903D0016841F001010160ED
:101C0000002010BD002C01400004004000080040EE
:101C100000680349884202D10249012008707047D8
:101C2000002C014000000020704770477047000002
:101C3000F8B5016804460868CA684B6910F00F0FD0
:101C40004FF0000559D003F0010602F490773743B6
:101C500065D0C10705D0D10503D5616C41F0010104
:101C60006164410705D5D90703D0616C41F00201D9
:101C70006164810705D5D90703D0616C41F0040187
:101C80006164010707D502F02001314303D0616C84
:101C900041F008016164616C00293AD0800604D5E6
:101CA000900602D5204600F03DFE20684069616C38
:101CB000C0F38010090700D460B3204600F00BFE8B
:101CC00020684069400621D52068143050E8001F84
:101CD00021F0400140E80012002AF5D1E06BA8B1E4
:101CE0006D494163E06BFEF70BFF002811D0E06BFC
:101CF000416B01B0BDE8F040084783060FD593065D
:101D00000DD52046BDE8F84000F00CBE2046FFF798
:101D10008DFFF8BD2046FFF789FF6564F8BD266B8F
:101D20002023012E7CD1C6067AD5D60678D5086840
:101D30004868009048694FF00206400640D5E16BC4
:101D4000086840680004000CE8D0A28D8242E5D902
:101D5000E085886920282DD020680C3050E8001FCD
:101D600021F4807140E80012002AF5D12068143077
:101D700050E8001F21F0010140E80012002AF5D1CF
:101D80002068143050E8001F21F0400140E80012A4
:101D9000002AF5D184F84230256320680C3050E8E1
:101DA000001F21F0100140E80012002AF5D1E06B7D
:101DB000FEF782FE6663A08DE18D401A81B22AE0B3
:101DC000A08DE18D401A81B2E08D0028A6D00029B7
:101DD000A4D022680C3252E8000F20F4907042E840
:101DE0000007002FF5D12068143050E8002F22F0B2
:101DF000010240E80027002FF5D184F84230256326
:101E000020680C3050E8002F22F0100240E8002338
:101E1000002BF5D166632046FFF707FFF8BDFFE70B
:101E200005062BD5150629D594F841002128F5D1B2
:101E3000A068B0F5805F01D12069B0B1206A411C73
:101E40002162216800784860E08C401E0004000C8C
:101E5000E084E3D12068C16821F08001C16020687E
:101E6000C16841F04001C160D8E7206A0088C0F332
:101E700008004860206A801C2062E5E74006CDD556
:101E80005006CBD5CA68204622F04002CA6084F8CA
:101E9000413000F003F9C1E7C728000870B504001D
:101EA00004D094F84100002510B106E0012070BD77
:101EB00084F84050204600F023F8242084F84100A4
:101EC0002068C16821F40051C160204600F08CFDFB
:101ED0002068016921F4904101612068416921F085
:101EE0002A0141612068C16841F40051C160656404
:101EF000202084F8410084F842006563002070BD12
:101F000070B586B0002400940194029403942B4E83
:101F100003682B49022003222A4DB34221D18B6949
:101F200043F480438B618B6903F4804304938B6992
:101F300043F004038B618969039201F00401049169
:101F40000102CDE9001069462846FEF725FE281556
:101F5000CDE90004694628460294FEF71DFE06B04E
:101F600070BD194EB342FAD1CB6943F40033CB6153
:101F7000CB6903F4003304938B6943F004038B6152
:101F80008969039201F0040104910421CDE9001054
:101F900069462846FEF700FE0820CDE900046946A0
:101FA00028460294FEF7F8FD002211462620FEF78F
:101FB00055FF2620FEF744FFD1E70000003801401E
:101FC00000100240000801400044004090F84230F8
:101FD000202B01D00220704721B11AB100230363E6
:101FE00000F05EBD0120704700680349884201D1BE
:101FF000FEF7FCBB70470000004400402DE9F843A9
:10200000044690F84100984616460D46202802D016
:102010000220BDE8F88385B17EB1002060642120F4
:1020200084F84100FEF7AEFEA6848146E684A068EF
:102030002027B0F5805F02D003E00120E9E72069A6
:1020400010B12E4600250EE000260CE0802120462F
:1020500000F041FDA8B9C6B116F8010B216848602F
:10206000E08C401EE084E08C4B464FF00002CDF83F
:1020700000800028EAD14FF04001204600F02BFDFF
:1020800040B184F841700320C3E735F8020BC0F378
:102090000800E3E784F841700020BAE77047FEE7E4
:1020A0003EB5002411480094019402940E498460C6
:1020B000016004730475012505614FF460214460DB
:1020C000C161FEF73FFC08B1FEF7C9FA0620CDE971
:1020D0000005694602940548FEF7B6FB002801D0CA
:1020E000FEF7BDFA3EBD000000240140840100203F
:1020F00070B586B0002418480094019402940394AB
:10210000816941F020018161816901F02001049120
:10211000816941F004018161816901F00401049148
:10212000816941F00801816180690C4E00F008006E
:102130004FF470450490002229463046FEF71CFEFD
:1021400001200095CDE90104022003906946304644
:10215000FEF722FD06B070BD00100240000C0140E9
:1021600010B586B00024174800940194029403949B
:10217000049413490594016041F61F41C0E901141C
:102180006321C0E9031444618461FFF7C5F908B114
:10219000FEF765FA4FF48050009069460948FFF752
:1021A00033FA08B1FEF75BFA049404A905480594D4
:1021B000FFF77EF9002801D0FEF751FA06B010BDF6
:1021C000002C0140B401002010B58CB024216846D9
:1021D000FEF73BF80024154809944FF080410A941B
:1021E000C0E900144FF6FF71C0E902410461846147
:1021F0000320CDE900040120CDE902040494CDE9D7
:1022000005400794694609480894FFF76BFA08B13E
:10221000FEF725FA099409A904480A94FFF748F93A
:10222000002801D0FEF71BFA0CB010BDFC01002005
:1022300010B58AB0002407941C2168460894FEF764
:1022400004F81A48184901604721C0E9011440F216
:10225000E731C0E903148461FFF749FC08B1FEF7D8
:10226000FEF9079407A911480894FFF721F908B16E
:10227000FEF7F5F96020CDE90004029408226946D2
:102280000A480494FFF7CDFB08B1FEF7E8F90C22E9
:1022900069460648FFF7C5FB08B1FEF7E0F90348B9
:1022A000FFF798FB0AB010BD000400404402002074
:1022B00010B58CB024216846FDF7C7FF00241648EE
:1022C000099414490A94C0E900144FF6FF71C0E95B
:1022D0000241046184610320CDE900040120CDE9BD
:1022E00002040494CDE90540079469460A4808941D
:1022F000FFF7F8F908B1FEF7B2F9099409A9064801
:102300000A94FFF7D5F8002801D0FEF7A8F90CB021
:1023100010BD0000000800408C0200200C4810B5E1
:102320000A4901604FF4E1314160002181600C22D3
:10233000C160C0E904128161C161FFF7AFFD0028EF
:1023400003D0BDE81040FEF78AB910BD0038014047
:10235000D40200200C4810B50A4901604FF4E13165
:102360004160002181600C22C160C0E904128161DA
:10237000C161FFF793FD002803D0BDE81040FEF7D0
:102380006EB910BD004400401C030020FEE70000B1
:1023900010B50446406900F013FE216900F032FDDB
:1023A000BDE81040014900F06BBE00009A99193E4B
:1023B0002DE9F047044608A81D4690E88007002054
:1023C000A06060612160E0600B4820610A20A0618C
:1023D000084616463C21FFF71DFA6660C4E9075718
:1023E000A4F82480C4F828903046A4F82CA02946EC
:1023F000BDE8F047FFF7BEBB0000704470B504466F
:102400000D1E006AA18C1BDD0122FEF7B5FCA18D1B
:102410000022A06AFEF7B0FCE06938B1042809D0B8
:1024200008286068006809D0056470BD60680068AD
:10243000456370BD60680068856370BDC56370BD2D
:102440001CDA0022FEF798FCA18D0122A06AFEF79B
:1024500093FC6842E1691BE061680968486370BDEC
:10246000042905D008296168096805D0086470BD91
:1024700061680968886370BDC86370BD0122FEF79A
:102480007BFCA18D0122A06AFEF776FCE1690020A9
:102490000029E5D1E0E700002DE9F041054600689C
:1024A0000068406A06B2A868341AB4F5004F01DB30
:1024B000A4F5803414F5004F01DA04F5803468691E
:1024C00020446861A86900F093FD0A4900F09AFC75
:1024D0000746204600F074FD296900F093FC394658
:1024E00000F090FC044900F0CBFDC5E90260BDE8B6
:1024F000F081000000007A4400007042FEE72DE900
:10250000F0410446D4E9030100F0C2FE0146E06157
:10251000A06A00F009FCA062616900F07DFE01D2B2
:102520006069A062A169A06A00F076FD01D2A0698D
:10253000A062D4E90751284600F0AAFE0146A0682F
:1025400000F09EFD0746A16A606800F099FD06460E
:102550002946206800F094FD314600F0E5FB39463D
:1025600000F0E2FB0546616900F056FE00D26569A5
:10257000A169284600F050FD00D2A569E069E56236
:1025800020622846BDE8F08130B5DDE903454461AD
:1025900080E80E000021C160C0E90651016281623D
:1025A00030BD70477047000070B50D4C606900F099
:1025B00007FD0C490861E0680B4C0C49206100F0F4
:1025C0005FFD05460A49606A00F05AFD294600F0A1
:1025D000ABFB60620348FFF792FF0649086070BDDD
:1025E000C40000209400002034000020CCCC4C3EDD
:1025F000CDCC4C3F04000020FEF7CABB30B593B0F1
:1026000028216846FDF721FE14210AA8FDF71DFECA
:10261000002501200F9510951195010412958DE864
:10262000230004904FF4E010CDE908100224079431
:102630006846FEF797FD08B172B6FEE70AA90F20BB
:1026400081E831004FF48060CDE90D0502210AA830
:10265000FEF7ACFC08B172B6FEE74FF400401190F3
:102660000F940FA8FEF72CFC002801D072B6FEE7ED
:1026700013B030BD704700000148FFF713B90000E8
:10268000B4010020F0B50268194B1A4C1A4D4FF0F6
:102690008047984205D0B84203D0A04201D0A8425A
:1026A00003D122F070064A683243984205D0B842FE
:1026B00003D0A04201D0A84203D122F44074CA68DA
:1026C00022434C6922F08002224302608A68C2627F
:1026D0000A688262984201D109690163012141615E
:1026E0000169C90703D0016921F001010161F0BD51
:1026F000002C0140000400400008004010B501F02B
:102700001F030121046A99408C430462016A9A40C4
:102710001143016210BD10B5846842EA032224F41B
:102720007F440A432243826010BD826822F0700217
:102730000A4342F0070181607047000030B5036A28
:10274000026A22F0010202624268846924F0730581
:102750000C682C4323F002058B682B430A4DA842DA
:102760000BD123F00805CB6822F440722B434D694E
:1027700023F0040315438A692A434260846149684F
:102780004163036230BD0000002C014030B5026A95
:10279000036A23F010030362436884690D6824F41C
:1027A000E64444EA05248D6822F0200242EA05123C
:1027B0000B4DA8420ED1CD6822F0800242EA0512EC
:1027C0004D6923F4406343EA85038D6922F040029A
:1027D00043EA85034360846149688163026230BDD6
:1027E000002C014030B5036A026A22F48072026252
:1027F0004268C46923F4007324F073050C682C4309
:102800008D6843EA05230C4DA8420ED1CD6823F410
:10281000006343EA05234D6922F4405242EA05125F
:102820008D6923F4806342EA05124260C4614968FD
:10283000C163036230BD0000002C014030B5046A62
:10284000026A22F4805202624268C3690D6823F46E
:10285000E64343EA05238D6824F4005444EA053432
:10286000064DA84204D14D6922F4804242EA851205
:102870004260C36149680164046230BD002C0140BC
:1028800010B5036A046A24F001040462846924F028
:10289000F00444EA021423F00A020A43846102624B
:1028A00010BD10B5036A046A24F010040462846940
:1028B00023F0A00324F4704444EA023243EA0111F5
:1028C0008261016210BD10B5406A0021C185C184DA
:1028D000FFF7ACF910BD01680C3151E8002F22F46C
:1028E000907241E80023002BF5D10168143151E8C2
:1028F000002F22F0010241E80023002BF5D1016BEB
:10290000012909D101680C3151E8002F22F0100291
:1029100041E80023002BF5D1202180F8421000214E
:102920000163704708B590F84210222901D00220B7
:1029300008BD82684FF480539A4201D1016921B1E8
:10294000816A9A421BD04AB10AE00268816A5268E1
:10295000C2F308020A80816A891C08E0026972B128
:102960000268526802F07F020A70816A491C816223
:10297000C18D491E0904090CC18503D01BE0026802
:102980005268F1E70168CA6822F02002CA60016853
:10299000CA6822F48072CA6001684A6922F00102A2
:1029A0004A61202180F8421000214163026B012A14
:1029B00003D0FFF719FB002008BD016301680C314B
:1029C00051E8002F22F0100241E80023002BF5D13E
:1029D00001680A68D20602D50A6849680091818DAB
:1029E000FFF723F9E7E7000070B5044600680169C6
:1029F000E26821F44051114301612169A068084354
:102A0000616908432168CA6841F20C639A43024332
:102A1000CA6020684169A26921F440711143416193
:102A20001E492068884202D1FEF766FB01E0FEF7EE
:102A300053FB00EBC00101EB0012606864218000D1
:102A4000B2FBF0F3B3FBF1F36FF018067343B2FB84
:102A5000F0F5B2FBF0F605EB8305322303EB051529
:102A6000B5FBF1F5B6FBF1F605F0F00505EB061543
:102A7000B2FBF0F6B2FBF0F0B0FBF1F06FF0180231
:102A8000504306EB800003EB0010B0FBF1F021682F
:102A900000F00F002844886070BD0000003801403D
:102AA00081628285C28500214164222180F8421022
:102AB000016921B10168CA6842F48072CA60016884
:102AC0004A6942F001024A610068C16841F0200190
:102AD000C160002070472DE9F843984617460D461F
:102AE0000446089E24E0701C22D0FEF74BF9A0EBB0
:102AF0000800B0421AD8CEB12068C168490717D57E
:102B0000802D15D0402D13D00168C94309070FD47B
:102B100001680025406800902046FFF7DCFE082091
:102B2000606484F840500120BDE8F8830320FBE78F
:102B30002068006835EA000004D00020B842D2D0F6
:102B40000020F1E70120F9E70148FFF771B8000024
:102B50001C030020FEE700000149086070470000E8
:102B60001C0000200907090E002804DB00F1E0200A
:102B700080F80014704700F00F0000F1E02080F8AA
:102B8000141D70472DE9F041804623480022C0E91A
:102B90000321FFF7B4FC05462048FFF77DFC2048E1
:102BA000FFF77AFC1D481F4C1D49C6681E4F266161
:102BB000C9683961406900F003FA1C490861294677
:102BC000404600F0B1F8E0602946404600F060FB66
:102BD000F8601749304600F053FA05461549606A17
:102BE00000F04EFA294600F09FF860622046FFF799
:102BF00086FC00F0C9F905B23846FFF780FC00F00A
:102C0000C3F904B229460548FFF7F8FB2146BDE8A1
:102C1000F0410348FFF7F2BB24010020C40000206C
:102C200054010020340000206400002094000020A3
:102C3000CCCC4C3ECDCC4C3FFEF7B2F8FFF7DEFCDF
:102C4000FFF756FAFFF72CFAFFF7BEFAFFF730FB53
:102C5000FFF786FAFFF7ECFAFFF760FBFFF77AFB66
:102C6000FDF76AFC1F48FEF7A3FCFDF79BFC002163
:102C70000120FDF79BFD1C4C1C4D002620780128EF
:102C800027D12670D4E90101FFF77CFF1848FFF730
:102C90007FFB184988421CDD0020FDF721FD40F62E
:102CA0000551884215D90020FDF71AFDB0F56C6F6B
:102CB0000FD8607858B90E480F493038006900F0D5
:102CC00033F800F061F9FDF7C1FC01206070FFF7F7
:102CD0006BFC28780128D1D1FDF7C4FCA0602E70D0
:102CE000CCE70000B40100200000002020000020FC
:102CF000C4000020000020410000344510B5002928
:102D00000AD00878002807D005487844FDF7A0FBD2
:102D1000002801D0002010BD0248784410BD0000FA
:102D2000DA060000D206000090EA010F48BF81F0E9
:102D3000004100F1B482421A3CBF801A89184FEA60
:102D4000D0524FF07F4C1CEA410FA2EBD15318BF79
:102D50009CEA026F00F03B804FF0004C4CEA0020F0
:102D60004CEA012121FA03FC10EB0C0C1ED202F1FB
:102D7000FF325FEA1C2040EBC25038BF70471CF0A6
:102D80007F0F4FEA400C18BFBCF17F4F38BF704730
:102D9000C3F12003994008BF20F00100BCF17F4F30
:102DA00038BF7047A0F1C04000F031BA4FEA3C0094
:102DB000000A40EBC25028BF1CF0FF0F4FEA400C46
:102DC000E6D018BFBCF17F4F38BF7047EAE79CEAF6
:102DD000026F05D010EA5C0F08BF00F0004070479A
:102DE00010B500F0CEF900BF64FBBE3E401058BFE6
:102DF000C0F14040491058BFC1F140418142EFF35A
:102E0000008070474FF47F0C1CEAD0121EBF1CEAF2
:102E1000D11392EA0C0F93EA0C0F00F0858090EA30
:102E2000010F48BF42F4807240F4000C41F40000EE
:102E30002CF07F4120F07F4000B58142A2EB0302DD
:102E40000FF2081CACEB504EC0F100009EF800E001
:102E50004FEA4E0E00FB0EFC38BF49004FEA2C1C17
:102E600002F5FA020CFB0EF34FEACE1E4FEA112CCC
:102E70004FEAC1210EEB635E42EB22420EFB0CFCDB
:102E80004FEA1C5300FB03114FEA112C4FEA0131AA
:102E90000EFB0CFC4FEADC4C00FB0C11C14228BFBE
:102EA00009184CEB03335DF804EB10EB410143EBE5
:102EB000C250B2F57C0F38BF704729D512F0F00F21
:102EC0001CBF00F1C04000F00040704700818283C9
:102ED0008485868788898B8C8D8E8F919293959629
:102EE00097999A9C9D9FA0A2A3A5A7A8AAACAEB0B3
:102EF000B2B3B5B7B9BCBEC0C2C5C7C9CCCED1D4B8
:102F0000D7D9DCDFE2E6E9ECF0F3F7FAFE000000E7
:102F10004FEA400C0CF1807CBCF17E4F28BF70471B
:102F2000B0F1C04000F073B990EA010F0CEAD11380
:102F300048BF42F48072624538BF634507D213F43C
:102F40007F0F16D080EA010000F00040704710B5F6
:102F500000F017F9097EFC3E00F005B880EA010098
:102F600000F00040704780EA010000F0004000F0EF
:102F70004EB912F47F0F04BF0248704780EA010087
:102F800000F045B90000C07F41000B0ED3F19E0256
:102F900008D950F400034FEA032323FA02F048BF94
:102FA0004042704710B500F0ECF800BF4992248011
:102FB000002070476FF0004282EA20007047000056
:102FC00010F0004148BF4042B0FA80F310FA03F21B
:102FD000C3F19D030BD051EAC35101EB12205306FC
:102FE00038BF704700F1010008BF20F001007047B2
:102FF000B0FA80F310FA03F2C3F19D030AD0D905A9
:1030000001EB1220530638BF704700F1010008BFE2
:1030100020F001007047000050EA010C00F113801D
:103020001CF5000F58BFBCF5000F01D48842704753
:1030300007D710F5000F58BF11F5000F15D48842BF
:103040007047894270471CF5000F04D5BCF5000F8E
:10305000F7D5814270474FF0807C1CEB400F38BFA2
:103060001CEB410F01D28142704710B500F089F886
:10307000922449004FF000504FF08051FFF7B6BE48
:103080004FF47F0C1CEAD0121EBF1CEAD11392EA47
:103090000C0F93EA0C0F00F0478090EA010F48BF35
:1030A00042F480724FF0004C4CEA00204CEA0121BF
:1030B00002EB0302A0FB0113A2F50002002918BFD6
:1030C00043F001035B0028BF4FEA330342EB224287
:1030D0005FEA132C4CEBC2502EBFBCEB436FB2F532
:1030E0007C0F70474FEA036CBCF1004F08BF20F023
:1030F0000100B2F57C0F38BF70470BD582F0FF029C
:1031000012F5803FC8BF704700F1C040D8BF00F043
:103110000040704700F5000C5FEA4C0C48BF704758
:10312000B0F1C04000F073B890EA010F0CEAD1137F
:1031300048BF42F48072624538BF634504D280EADA
:10314000010000F00040704710B500F01AF800BF11
:103150008900013E00F007B800F009B85FEA410CB1
:103160005FEA1C6C08D080EA010000F050B85FEA0A
:10317000400C5FEA1C6CF6D14FF00040A0F58000D7
:1031800070470EF1020E2EF0030E5EF8044B24423F
:1031900004D44FEA4102B2F17F4F11D84FEA400305
:1031A000B3F17F4F0CD80ED14FEAD07CB2F17F4FF4
:1031B0000CEB4C0C0CF1020C08BF4CEBD17C04E086
:1031C0004FF0080C01E04FEAD17C0CEB4C0324FAE1
:1031D00003F404F00704B4F1040C06D20EEB840CE3
:1031E000BDE810404CF0010C6047DFE80CF0070828
:1031F00002024FF00040A0F5800010BD08464200DA
:1032000018BFD2F1807288BF00F0004010BDFF21CE
:1032100041EAD050C005704751EA000C00F113801C
:103220001CF5000F58BFBCF5000F01D48142704758
:1032300007D711F5000F58BF10F5000F15D48142C4
:103240007047894270471CF5000F04D5BCF5000F8C
:10325000F7D5884270474FF0807C1CEB410F38BF98
:103260001CEB400F01D28842704780EA010081EADE
:10327000000180EA0100FFF7F8BE80F0004090EA0C
:10328000010F7FF558AD81F0004100F008B8000053
:1032900090EA010F48BF81F000413FF54CAD421A62
:1032A00004D882F00042A0EB020011444FEAD05251
:1032B0004FF07F4C1CEA410FA2EBD15318BF9CEAA0
:1032C000026F4AD04FF0004C4CEA00204CEA01213A
:1032D00021FA03FCB0EB0C0C0FD412F0FE0F36D029
:1032E0005FEA4C001DD5001240EBC25038BF70475A
:1032F0001CF03F0F18BF70470BE0A2F101025FEA1C
:103300001C2040EBC25038BF70471CF07F0F18BF25
:103310007047C3F12003994014BF401E20F0010004
:10332000704780084FEA122308BF7047B0FA80FC4C
:10333000A2EB0C02CCF1280C60FA0CF093EA122FED
:1033400004BF00EBC25070474FEAC3707047130AC6
:103350005FEADC1008BF7047F6E79CEA026F04D012
:1033600010EA5C0F08BF0020704710B5FFF709FF97
:1033700040DFF63E81F00040704701020203040581
:10338000060708090A0B0C0D0E0F101000000000B4
:103390000000000001020304060708090000000005
:1033A00001020304000060C0000020C00000C0BF94
:1033B000000000BF0000003F0000C03F00002040B0
:1033C00000006040F43400080000002034000000D9
:1033D000280100082835000834000020E409000016
:1033E000440100081001000043000000F8FFFFFF47
:1033F0000040404040404040404041414141414008
:1034000040404040404040404040404040404040BC
:10341000400502020202020202020202020202024B
:103420000220202020202020202020020202020250
:1034300002029090909090901010101010101010A8
:1034400010101010101010101010101002020202B4
:1034500002028888888888880808080808080808F8
:1034600008080808080808080808080802020202F4
:10347000400000000000000000000000000000000C
:10348000000000000000000000000000000000003C
:10349000000000000000000000000000000000002C
:1034A000000000000000000000000000000000001C
:1034B000000000000000000000000000000000000C
:1034C00000000000000000000000000000000000FC
:1034D00000000000000000000000000000000000EC
:1034E00000000000000000000000000000000000DC
:1034F0000000000000000000000048430000000041
:1035000001000000100000000000000000127A001E
:1035100000000000000000000000000000000000AB
:083520000000000000000000A3
:04000005080000ED02
:00000001FF
