:020000040800F2
:10000000800A0020AD01000855340008F72F0008D1
:10001000E5320008E5140008AD3A000800000000D1
:10002000000000000000000000000000FD34000897
:10003000A115000800000000FB340008513500083D
:10004000C7010008C7010008C7010008C701000870
:10005000C7010008C7010008C7010008C701000860
:10006000C7010008C7010008C7010008C701000850
:10007000C7010008C7010008C7010008C701000840
:10008000C7010008C7010008C7010008C701000830
:10009000C7010008C7010008C7010008C701000820
:1000A000C7010008D1350008C7010008C7010008D2
:1000B000C7010008C7010008C7010008C701000800
:1000C000C7010008C7010008C7010008C7010008F0
:1000D000C7010008C7010008A13A0008C7010008CD
:1000E000C7010008C7010008C701000800F002F8B6
:1000F00000F04DF80AA090E8000C82448344AAF175
:100100000107DA4501D100F042F8AFF2090EBAE872
:100110000F0013F0010F18BFFB1A43F0010318473B
:10012000F043000010440000103A24BF78C878C1A2
:10013000FAD8520724BF30C830C144BF04680C60ED
:10014000704700000023002400250026103A28BF35
:1001500078C1FBD8520728BF30C148BF0B60704739
:10016000662904F06481002070471FB500F0C2FBCF
:1001700004000020002103F0F3FD401C606000201B
:10018000002103F0D7FDE0601FBD10B510BD00F0E9
:10019000FDFC1146FFF7E9FF03F04CFD00F029FDDF
:1001A00003B4FFF7F2FF03BC00F06CFD0948804781
:1001B00009480047FEE7FEE7FEE7FEE7FEE7FEE749
:1001C000FEE7FEE7FEE7FEE704480549054A064B61
:1001D00070470000CD350008ED00000880040020C5
:1001E000800A002080060020800600200FB47CB525
:1001F0000C0009AA009001D02044401E084B7B440B
:1002000069460190089800F010FB05461CB10020DB
:10021000694600F01DFB28467CBC5DF814FB00001D
:10022000590600002DE9F0474FF0000A89460446C0
:10023000C0F820A02046E1688847002876D025280D
:1002400006D0D4E901219047206A401C2062F1E7E2
:10025000E168204600258847C4F81CA00646002710
:10026000C4F818A02A2E09D0304603F087FC38B312
:1002700004EB8708303EC8F8186019E059F8041BF1
:10028000204604EB87029161E1688847012F06460A
:1002900018D1E069002820DA25F020051DE0D8F803
:1002A000180000EB800006EB40003038C8F818005A
:1002B0002046E1688847064603F060FC0028EED13E
:1002C000012F0AD02E2E08D12046E16888477F1CD6
:1002D0000646022F45F02005C4DBA069002803DA9A
:1002E000404245F00105A061E80701D025F0100566
:1002F000B6B1A6F14100192802D8203645F40065B0
:100300004A463146204625604D46FFF729FF58B141
:10031000012806D0ED1D25F0070000F1080989E746
:1003200004E005F1040985E730468AE7206ABDE864
:10033000F08770B5064600F05FF804680546304661
:100340000A22002100F091FA2C6070BD401ECAB252
:1003500010F8011F8A4202D00029F9D1002070470D
:100360004FF000020429C0F0128010F0030C00F0DE
:100370001B80CCF1040CBCF1020F18BF00F8012B5C
:10038000A8BF20F8022BA1EB0C0100F00DB85FEA2A
:10039000C17C24BF00F8012B00F8012B48BF00F8F6
:1003A000012B70474FF0000200B513469446964665
:1003B000203922BFA0E80C50A0E80C50B1F1200178
:1003C000BFF4F7AF090728BFA0E80C5048BF0CC026
:1003D0005DF804EB890028BF40F8042B08BF704784
:1003E00048BF20F8022B11F0804F18BF00F8012BF6
:1003F0007047704770477047004870471C040020E2
:1004000070472DE9FF4F0C461E464FF0FF378BB06B
:10041000D2E90001DDF860800A908A46C1F30A55EE
:1004200005B93D46002108464FF00000BAF1000F23
:1004300000F4400005DA00EB80004FF4400101EACF
:1004400050004FEA9059B9F1010F00DDB9460A9802
:1004500050EA4A000ED044F61050A5F2FF3545434D
:100460002F14B8F1000F1ED07542291E1EDDC9F1F0
:1004700000021CE0B8F1010F4FF0000001D0302164
:1004800003E0F24305E02154401CB042FBDB304660
:100490000022002121540B99C1F80880C1E90020F5
:1004A0000FB0BDE8F08FBD1B6D1CDEE74A4600DAD9
:1004B000694206A800F0F8FA06AB93E8070003AB20
:1004C00083E8070050460A9900F0E3FB8DE8070037
:1004D000A0F500501F3800900398002D0ADD42F26D
:1004E0001F014A460844002303A90390684600F010
:1004F0004CFE09E0A0F500504A461F38002303A92E
:100500000390684600F056FE8DE807000004000CDA
:1005100003D04FF0FF30410800E01046B8F1000F63
:1005200003D00022009215461EE0751E05D400F08F
:10053000E5F9303262556D1EF9D5B3460122084304
:1005400002D000227F1C04E02078302801D1002254
:100550007F1E002A099784D01DE0112D07DA00F0D4
:10056000CDF9303262556D1C50EA0102F5D10843D5
:1005700002D00098C8B10EE00021681E05E0235C9F
:10058000625C63542254401E491C8142F7DBAB4637
:10059000A81B401E0990002004F80B000B98099A34
:1005A000C0F80880C0E9002B7AE711264FF0000858
:1005B00057E72DE9F04F88460446D21D22F0070187
:1005C00091B0D1E90001CDE90A0103F0B3FA024686
:1005D0000B98C00F01D02D2007E02068810701D5BE
:1005E0002B2002E0202101EAC000032A099001D05B
:1005F000072A05DB03464146204600F0C5F90BE11A
:100600002078800601D5E06900E00620B8F1650F8A
:10061000814606D0B8F1660F18D0B8F1670F70D1D7
:1006200031E00020B9F1110F009001DB112301E04E
:1006300009F101030AAA01A90CA8FFF7E2FEDDE90E
:100640000C70002609F10105834647E001204B4666
:1006500000904FF000470AAA01A90CA8FFF7D1FEAD
:10066000DDE90DB00C995D46002610B909F10100D5
:100670000D18B9EB050003D4C0F1FF3609F10105EF
:10068000A5EB09002BE0B9F1010F01DA4FF00109E8
:100690000020B9F1110F0090484601DD112300E060
:1006A00003460AAA01A90CA8FFF7ABFEDDE90C700E
:1006B0004D4600268346207800070AD4AB4500DA71
:1006C0005D4601A8012D04DD411911F8011C3029F6
:1006D00007D04F4502DA17F1040F04DA01208246F1
:1006E0000FE06D1EEEE7002F02DCED1B3E4403E041
:1006F000781CA84200DD7D1CB81B00F1010A4FF0F8
:1007000000472078000703D4AA4501DB4FF0FF3AE9
:100710000021B7F1004F0DF143088DF8431024D0AC
:1007200002202B23002F01DA7F422D230A21021EF3
:10073000A0F1010000DC5FB197FBF1FC97FBF1F247
:1007400001FB1C7C17460CF1300C08F801CDEEE7DC
:10075000A8F1010003702188090501D5452100E0B9
:100760006521A0F1010800F8011C09980FA9A1EB6F
:100770000807FF1D00B10120411901EBEA70A169D2
:100780003844081A401EA0612078C00602D42046D2
:10079000AFF30080099828B1D4E901219047206A7D
:1007A000401C20622078C00622D52046AFF300808E
:1007B0001EE0002E04DBB34502DD01A8805D00E0F1
:1007C0003020D4E901219047206A401C2062761C29
:1007D000AAF101005FEA000A0AD100F08BF8C068B4
:1007E0000168405CD4E901219047206A401C2062E6
:1007F000281EA5F10105DCDC07E0D4E9012118F889
:10080000010B9047206A401C2062381EA7F10107A7
:10081000F3DC2046AFF30080032011B041E6000076
:1008200001694A1C02610878704700B58FB0CDE9B4
:1008300001310021059105497944CDE903101146A4
:100840006846FFF7EFFC0FB000BD0000E5FFFFFFBB
:100850000A6802F8010B0A607047D1E900239A4246
:1008600002D2531C0B60107070472DE9F04791467F
:100870000F4680460446002614F8015B2DB100F0B7
:1008800031F80068405DC007F6D12B2D02D02D2D28
:1008900018D0641E4A463946204600F0B5F827B104
:1008A0003968A14201D1C7F800804FF002047105F8
:1008B0000BD54042002803DDFFF79EFD0460A00732
:1008C000BDE8F08746F48066E4E70028F8DAFFF731
:1008D00093FD04606FF00040F2E7000000487047AD
:1008E0001C04002010B500F005F8001D10BD00BF6D
:1008F00071340000004870473C04002030B5B0F16E
:100900000A024FEA900E71F100034EEA817EB0EBCD
:100910000E0061EB91014FEA101E4EEA017E10EBD2
:100920000E0041EB11114FEA102E4EEA016E10EB52
:100930000E0041EB11214FEA104E4EEA014E10EB32
:100940000E0041EB1141401841F100014FEAD00087
:1009500040EA41704FEAD10110EB80054FEA810473
:1009600044EA907444EB01046D1944EB0404521BF7
:10097000A3414FF0000348BF0A3200D530BD401CF0
:1009800041F1000130BD00002DE9F0411F46044651
:1009900003260168072A01F4006004DB08B116A5EC
:1009A00005E016A503E008B115A500E015A521F0A6
:1009B00010002060A069C01EA0610FB1401EA061A0
:1009C0002046AFF300804FB1D4E90121384690476B
:1009D000206A401C2062C01C206206E0206AFAE700
:1009E000D4E9012115F8010B9047761EF8D2204674
:1009F000AFF30080BDE8F0814E414E006E616E00A5
:100A0000494E4600696E66002DE9F05F8246154644
:100A10008B4600270AF10104B9460078302801D03E
:100A20009DB113E014F8010B0127782803D0582852
:100A300001D045B10AE00DB1102D07D1002714F8FF
:100A4000010B102502E0082500E00A250026B0462B
:100A50000EE005FB080005FB06F101271FFA80F8F0
:100A600001EB1046B6F5803F00D3B94614F8010BF0
:100A7000294600F0B0F80028EBDABBF1000F05D0F2
:100A80000FB1641E00E05446CBF80040B9F1000FEE
:100A900006D0FFF7B1FC02210160C81EBDE8F09F3F
:100AA00048EA0640FAE700002DE9F047814616467D
:100AB0008AB0354878440DC88DE80D003248784436
:100AC000801C03AC0DC884E80D0041F69B3008443F
:100AD000372190FBF1F290FBF1F5A5F1800501FBC8
:100AE00012041B3C02D56442012000E00020DFF824
:100AF00098A080460027FA44AAF1BE0A0EE0E0075B
:100B00000AD03246684607EB470101230AEB810110
:100B100000F050FB8DE8070064107F1C002CEED124
:100B2000194F7F44AE3F19E0E80715D007EB0410DA
:100B30000DF1180A90E80E008AE80E00C068F04235
:100B400001D1981908903246012306A903A800F0A4
:100B500031FB03AB83E807006D10641C002DE3D16B
:100B60004FF0010332466946B8F1000F03A802D0E6
:100B700000F00BFB01E000F01DFBC9E90001C9F822
:100B800008200AB0BDE8F087403A00007546FFF73C
:100B9000A5FEAE4605006946534620F0070085468F
:100BA00018B020B5FFF710FBBDE820404FF000065D
:100BB0004FF000074FF000084FF0000B21F0070145
:100BC000AC46ACE8C009ACE8C009ACE8C009ACE888
:100BD000C0098D4670473A2800D2303820F02002F4
:100BE000412A01D3A2F13700884201D34FF0FF30F0
:100BF000704710B50446AFF300802046BDE81040B2
:100C0000FFF7CEBA4FF0013C50F8042B51F8043BEB
:100C10009A4221D1A2EB0C03934313EACC1317D1D0
:100C200050F8042B51F8043B9A4215D1A2EB0C0367
:100C3000934313EACC130BD150F8042B51F8043B27
:100C40009A4209D1A2EB0C03934313EACC13DBD0F5
:100C50004FF00000704700BFD01A01BAB1FA81F11D
:100C600001F0180122FA01F0CB40C1F12001DBB202
:100C7000C0B2C01A2CFA01F3D11A914311EAC31180
:100C8000E6D1704701491820ABBEFEE726000200FE
:100C900070475FEA400C08BF91F0000F4FEA8C23C9
:100CA0004FEAC12243EA51514FEA1C5018BF00F5E8
:100CB000F0404FEA300018BF41F000415FEA6C5C41
:100CC00000F02980BCF1FF3F08BF40F08040704732
:100CD000130C06BF12044FF0100C4FF0000C130E53
:100CE00004BF12020CF1080C130F04BF12010CF127
:100CF000040C930F04BF92000CF1020CD30F04BF3D
:100D000052000CF1010C11464FF00002A0F11F003F
:100D1000A0EB0C00704711F0004F08BF704731F096
:100D200000413FF4D5AF0B0C06BF09044FF0100C87
:100D30004FF0000C0B0E04BF09020CF1080C0B0F56
:100D400004BF09010CF1040C8B0F04BF89000CF1E6
:100D5000020CCB0F04BF49000CF1010CCCF12003B5
:100D6000A0EB0C0022FA03F302FA0CF241EA0301B1
:100D700000F10100704720F07F4C80EA030023F06F
:100D80007F47ACEB070303F57C5300F0004003F111
:100D9000FF032DE980494FEA154B09B44FEA14438C
:100DA00025EA0B4E24EA03480FF2042606EB13272C
:100DB00049083E785FEA320203FB0667C7F5000781
:100DC00007FB06F64FEA54374FEAD64606F102060D
:100DD00007FB066CCCF1005C4FEA1C472CEA074C81
:100DE00007FB06F40CFB06F504EB15464FEA9616D6
:100DF00034BF00204FF000404FEAD13706FB07FC1C
:100E00004FEA1C4C0CFB0BF7D21B03FB0CF761EBFE
:100E100007010CFB0EF7B0EB074072EB17420CFB1F
:100E200008F734BFA2EB0742B2EB074261EB174170
:100E30004FEA0C444FEA910706FB07FC4FEA1C4CB3
:100E40000CFB0BF7B0EBC74072EB573203FB0CF710
:100E500034BFA2EBC742B2EBC74261EB57310CFB88
:100E60000EF7B0EBC70072EB57720CFB08F734BFFC
:100E7000A2EBC702B2EBC70261EB5771039F4FEAC7
:100E8000816141EA921104EBCC044FEAD1374FEA79
:100E9000826206FB07FC42EA90124FEA80604FEA4A
:100EA0001C4C0CFB0BF7D21B03FB0CF761EB07018F
:100EB0000CFB0EF7B0EB074072EB17420CFB08F788
:100EC00034BFA2EB0742B2EB074261EB17414FEA96
:100ED0008C554FEA910704EB9C2406FB07FC4FEA74
:100EE0001C4C0CFB0BF7B0EBC74072EB573203FB0B
:100EF0000CF734BFA2EBC742B2EBC74261EB5731EC
:100F00000CFB0EF7B0EBC70072EB57720CFB08F747
:100F100034BFA2EBC702B2EBC70261EB577115EB0E
:100F20004C254FEA816141EA92114FEA82624FEA11
:100F3000D13742EA901206FB07FC44F100044FEA65
:100F400080604FEA1C4C0CFB0BF7D21B03FB0CF729
:100F500061EB07010CFB0EF7B0EB074072EB174299
:100F60000CFB08F734BFA2EB0742B2EB074261EB80
:100F7000174115EB1C154FEA813141EA92414FEAC6
:100F8000823242EA90424FEA80304FEA0C7644F1D6
:100F9000000448EA03434EEA0B484FF0000EB2EB60
:100FA000080C71EB030724BF624639464EEB0E0E68
:100FB0004FF0000B0018524149414BEB0B0BB2EBC9
:100FC000080C71EB03077BF1000B24BF6246394626
:100FD0004EEB0E0E4FF0000B0018524149414BEB07
:100FE0000B0BB2EB080C71EB03077BF1000B24BF7A
:100FF000624639464EEB0E0E51EA020718BF46F024
:10100000010616EB0E7655F1000254F1000103D5EE
:10101000BDE88901BDE80088BDE88901BDE8004858
:10102000B619524141EB0101A3F1010370478080E1
:101030007F7E7D7C7B7A7978777676757473727132
:1010400071706F6E6E6D6C6C6B6A6A6968686766EA
:1010500066656464636362616160605F5F5E5E5D7C
:101060005D5C5C5B5B5A5A595958585757565655F0
:1010700055555454535352525251515050504F4F52
:101080004F4E4E4D4D4D4C4C4C4B4B4B4A4A4A49A2
:1010900049494848484747474746464645454544E5
:1010A0004444444343434342424242414141002B72
:1010B0009C4630D477002BD01CB54FEA370703B4D9
:1010C0004FF010004FF01001BAF1000F06D0BCF144
:1010D000000FDCBF40F0080040F008014FF00000B6
:1010E0000FBCBDE810400BF1010BBBF1010F08BFB5
:1010F0005FEA170722BF12F1010211F101014FF05F
:10110000004143F1000300F0004043EA0000704753
:10111000F9D35708D0E746EA064613F1400F4FEAE5
:1011200016461FDD13F1200FDFBF16430A460021CC
:1011300020335B42BED0C3F1200746EA064602FADE
:1011400007F74FEA164646EA0706C3F1200722FAD8
:1011500003F201FA07F721FA03F14FF0000342EA24
:101160000702A7E746EA020646EA06464FEA16469F
:1011700046EA0106BCBF46EA0646360C4FF00003BD
:101180004FF000024FF0000194E72DE9804C9A46A1
:10119000934670B491E8380007C831EA400C48BF64
:1011A00034EA430C03D5FFF7E6FDFFF780FFF0BC00
:1011B000BDE8008C2DE9804C9A46934670B491E8C6
:1011C000380007C810F0804F08BF13F0804F03D1DC
:1011D00000F005F8FFF76BFFF0BCBDE8008C20F0D5
:1011E0007F4780EA030023F07F4C07EB0C03A3F555
:1011F0007C5300F00040A3F1FE0392F0000F00F0DA
:10120000B38095F0000F00F077802DE901494FEA97
:1012100011404FEA144621EA004800FB06FC24EA8C
:10122000064708FB06F607FB08F800FB07F718EB74
:1012300006484CEB164C4FEA124B18EB07484FEAA6
:1012400015464CEB174022EA0B4E0BFB06FC25EA39
:1012500006470EFB06F607FB0EFE0BFB07F71EEB21
:10126000064E4CEB164C4FF000061EEB074E4CEBB7
:10127000174B18EB0B0840F1000018EB0E0B58EB66
:10128000000840F100008F1A4FF000013CBFC94335
:10129000661B14BFB5EB040C00213CBFC943F61B11
:1012A0004FEA17444EEA8E0E27EA04454FEA1C47E0
:1012B00004FB07622CEA074C05FB07F70CFB05F65D
:1012C00004FB0CFC16EB074642EB174216EB0C46F0
:1012D00042EB1C421BEB060658EB0202414146EA78
:1012E0009E0601D5BDE80189B619524141EB0101C5
:1012F000A3F10103BDE801894FEA14454FEA114704
:1013000024EA054621EA074C05FB07F406FB07F72C
:101310000CFB06F105FB0CFC11EB074144EB1744F9
:101320004FEA124711EB0C4144EB1C4422EA074CF4
:1013300005FB07F206FB07F70CFB06F605FB0CFCAA
:1013400016EB074642EB174216EB0C4642EB1C45E8
:101350006A1854F1000148BF7047B619524141EB79
:101360000101A3F10103704795F0000F37D04FEA58
:1013700011424FEA144721EA024624EA074C02FBD5
:1013800007F106FB07F70CFB06F402FB0CFC14EB61
:10139000074441EB17414FEA154714EB0C4441EB6E
:1013A0001C4125EA074C02FB07F506FB07F70CFB7F
:1013B00006F602FB0CFC16EB074645EB174516EB51
:1013C0000C4645EB1C42121951F1000148BF704711
:1013D000B619524141EB0101A3F1010370474FEAF5
:1013E00014454FEA114724EA054621EA074C05FB5C
:1013F00007F106FB07F70CFB06F24FF0000605FBB2
:101400000CFC12EB074241EB174112EB0C4251EB83
:101410001C4148BF7047921841EB0101A3F1010341
:101420007047000070B5044600688168C943C90769
:1014300017D1816821F00101816000F04DFC054663
:101440000AE000BF00F048FC401B022804D92068D5
:101450008068C043C00706D020688068C043C007CA
:10146000F0D0002070BDA06A40F01000A062E06AD9
:1014700040F00100E062012070BD00001FB54FF494
:101480000040104C4110CDE90041CDE902400C2351
:101490000D4A0E490E4801F037FFA0144100CDE976
:1014A0000041CDE902400823074A0A490A4801F0F1
:1014B0002BFF0A4800F0B6F804B00948BDE8104018
:1014C00002F0F6BA000C0140480200209002002011
:1014D000C800002000020020580100202003002046
:1014E000D8020020FEE700002DE9FC41194C1A4DFE
:1014F0001A4E1B4FCDE90054334600223946194895
:1015000001F0EEFFCDE9005433460022394616487B
:1015100001F0E6FFCDE9005400231A4613491448B0
:1015200001F0DEFF134C144D144E154FDFF85480BC
:10153000CDE9005433463A464146134801F0D0FF06
:10154000CDE9005433463A464146104801F0C8FF01
:10155000BDE8FC810000A0C30000A0438FC2F53CA1
:10156000CDCC4C3D98000020F800002000001C422B
:101570002801002000007AC400007A445839343C25
:101580000AD7633F3333AB403800002068000020A7
:1015900010B502F079FD0149C86010BD9800002027
:1015A000704772B6FEE700002DE9F0470026DFF82D
:1015B0005880DFF85890354634464FF07E5A00BFC9
:1015C00018F80400B8B1002759F82410384602F082
:1015D000BBFD314602F00CFC06463946284602F0B7
:1015E00007FC641C0546082CEADBB5F17C5F04DAD5
:1015F0000020BDE8F0875746E6E701463046BDE8E3
:10160000F04702F063BC0000300000205C4400089A
:10161000082803D2024931F81000704700207047B3
:10162000CC03002010B50A490022044688608A8055
:101630000A70CA600A6110210648FEF791FE04494B
:1016400020460122BDE81040891C01F06BBC00005F
:1016500024000020CC0300202DE9F041032934D3DD
:101660000278242A31D1427801241A4D442A19D013
:10167000412A2AD10026DFF86080801C3A21FEF73B
:1016800065FE08B3401C0746FEF753FE28F8160017
:101690002C213846FEF75AFEB0B1401C761C082EAD
:1016A000ECDB11E00B4E002216F10C0602EB82037C
:1016B0009B1D9BB28B4204D2C35C312B07D000230D
:1016C000B354521C082AF1DB2C70BDE8F0810123D1
:1016D000F6E7000024000020CC0300201CB50CA37A
:1016E000D3E90023CDE9002308B1312000E0302008
:1016F0008DF8030009B1312000E030208DF805009D
:101700000548642307226946806801F023FC1CBD5C
:1017100024302C302C3023002400002070B5144CD1
:101720000025144AA078242816D0617861B1A188D8
:10173000402902D25054491CA180232811D088B2DC
:10174000402801D36570A580A068BDE870400849B5
:101750000122891C01F0E6BB012161701070A1809B
:10176000F2E7657089B20348FFF776FFEBE7000008
:1017700024000020DC030020F8B50024009490F839
:1017800024202546012A12D0012280F824204A680C
:101790001F23072A0DD20668776B521E02EB8202C6
:1017A00093409F430B6893401F43776319E00220E7
:1017B000F8BD06680D2A0AD2376BD21F02EB8202EF
:1017C00093409F430B6893401F43376309E0F76AD8
:1017D0000D3A02EB820293409F430B6893401F43F4
:1017E000F7620A68072306680A2A0AD3F7680A3AE2
:1017F00002EB420293409F438B6893401F43F76084
:1018000008E0376902EB420293409F438B689340A4
:101810001F4337610A68102A01D0112A20D1124BC8
:1018200002689A4217D193681B0219D4936843F453
:10183000000393600968102912D10C490C4A096809
:10184000B1FBF2F101EB8101490000E0491E00917A
:101850000029FBD104E0816A41F02001816201246A
:1018600080F824502046F8BD002401401C000020D0
:1018700040420F002DE9F0414FF0000704003D46C3
:101880007ED0A06A002628B9E66284F8246020464B
:1018900000F07EF82046FFF7C5FDA16AC90600D416
:1018A00020B1A06A40F01000A06269E0A16A21F4B2
:1018B000885141F00201A1626268E169237B0A4319
:1018C00047EA43010A43A1684FF48077B94209D03F
:1018D000012907D05FF0000194F814C0BCF1010F9A
:1018E00002D00AE03946F7E7F3B1A36A43F02003D8
:1018F000A362E36A43F00103E3622368D3F804C000
:101900002CF4694C4CEA010CC3F804C021688B68C4
:10191000DFF870C003EA0C0313438B60A168B9427F
:101920000BD0012909D00CE0DFF85CC0A3690CEBF7
:1019300043330B4343F40061DFE7218A0D05A5F52E
:1019400080152168CB6A23F470032B43CB62216896
:1019500089680E4B1940914208D1E662A16A21F0D4
:10196000020141F00101A162BDE8F081A06A20F00E
:10197000020040F01000A062E06A40F00100E06266
:101980000120F1E7FDF7E1FF00E0FFFFFE0E1FFF82
:1019900000B585B00021009101910291039100688A
:1019A0000E49884218D10E48816941F40071816165
:1019B000816901F400710491816941F00401816140
:1019C0008069694600F004000490402000900320E4
:1019D0000190044800F08AF805B000BD00240140E1
:1019E000001002400008014010B590F821100022BC
:1019F000022905D00421816380F82020012010BD38
:101A000001680B6823F00E030B6001680B6823F07C
:101A100001030B6090F84030C46B012101FA03F31D
:101A2000636080F8211080F82020104610BD00006F
:101A300010B590F821100024022903D004218163FD
:101A400001243DE001680A6822F00E020A60016884
:101A50000A6822F001020A601A4A0168914201D123
:101A6000012121E0174A1432914201D110211BE0DB
:101A7000144A2832914201D1891515E0114A3C32AD
:101A8000914201D189140FE00E4A5032914202D1A5
:101A90004FF4803108E00B4A6432914202D14FF496
:101AA000801101E04FF08071064A083A516001212F
:101AB00080F82110002180F82010416B01B1884787
:101AC000204610BD0800024070B5044600F004F93D
:101AD0000546601C02D004480078044400F0FCF87D
:101AE000401BA042FAD370BD100000202DE9F84F32
:101AF000DFF8B8910024A9F1040B23460F2709F160
:101B0000040AABF1040EC9E00125A5402A40AA420F
:101B10007DD1674ED1F804C0ACEB0608B44532D095
:101B200014DCBCF1030F3AD009DCBCF1000F2AD061
:101B3000BCF1010F1CD0BCF1020F31D11DE0BCF192
:101B4000110F17D0BCF1120F2AD119E0B8F5881F78
:101B500019D006DCB8F5803F15D0B8F5801F1FD12D
:101B600011E0B8F5001F0ED0B8F5041F18D10AE037
:101B7000CB6815E0CB681B1D12E0CB6808330FE083
:101B8000CB680C330CE08B682BB1012B4FF00803B2
:101B900003D0456104E0042302E0056100E0002376
:101BA000FF2A01D8064601E000F104064FEA840549
:101BB00001D9A5F12005D6F8008007FA05FC28EA2E
:101BC0000C0803FA05F548EA0508C6F800804D68D8
:101BD000ED0062D5374DAE6946F00106AE61AD69E4
:101BE00024F0030605F001050095334D06EB050CC6
:101BF000DCF80850A607360F07FA06F825EA0805AC
:101C0000DFF8B880404503D14FF0000817E044E00A
:101C1000DFF8AC80404502D14FF001080FE0DFF85B
:101C2000A480404502D14FF0020808E0DFF8988018
:101C3000404502D14FF0030801E04FF0040808FAD4
:101C400006F848EA0508CCF808804D68D9F8006025
:101C5000ED024D4601D5164300E096432E604D68D7
:101C6000DAF80060AD02554601D5164300E0964310
:101C70002E604D68DBF80060AD035D4601D516436C
:101C800000E096432E604D68DEF80060ED03754677
:101C900001D5164300E096432E60641C0D682A4669
:101CA000E5407FF431AFBDE8F88F00000804014043
:101CB0000000111000100240000001400008014027
:101CC000000C014000100140001401400AB1016104
:101CD00070470904FBE70000014880687047000076
:101CE000100000200248816802781144816070472A
:101CF00010000020074810B5016841F01001016094
:101D0000032000F075F80F2000F006F800F024F82A
:101D1000002010BD0020024070B50D4D04464FF468
:101D20007A712878B1FBF0F00A490968B1FBF0F04C
:101D300000F052FB48B9102C07D200222146501E59
:101D400000F036F800206C6070BD012070BD00000E
:101D5000100000201C0000200C4808B5816941F0EB
:101D600001018161816901F001010091C16941F0C6
:101D70008051C161C06900F0805000900448416802
:101D800021F0E06141F00071416008BD00100240A7
:101D900000000140002809DB00F01F0201219140F2
:101DA0004009800000F1E020C0F8001170470000F9
:101DB000F0B40E4B1B680C46C3F30223C3F10705B6
:101DC000042D00D90425191D072901D2002300E0A4
:101DD000DB1E012606FA05F1491E214099409E406E
:101DE000761E16403143F0BC01F0B8BE0CED00E0A9
:101DF000064900F0070208684FF6FF03184040EA62
:101E00000220034A10430860704700000CED00E018
:101E10000000FA052DE9F84305460078354CC00767
:101E200054D0E0690026C00008D4E06940F080503A
:101E3000E061E069012600F0805000902E480168C2
:101E4000C90512D40168804641F480710160FFF732
:101E500043FF074605E000BFFFF73EFFC01B6428B5
:101E600023D8D8F80000C005F6D5206A10F44070D9
:101E700021D0A98801F4407181421CD0206A1F49F9
:101E8000012220F440700A6000220A602062C0072C
:101E900011D0FFF721FF074641F2883808E000BF64
:101EA000FFF71AFFC11B414502D90320BDE8F883A3
:101EB000206A8007F4D5206A696820F440700843DE
:101EC00020621EB1E06920F08050E0612878800730
:101ED00005D56068A96820F4404008436060287810
:101EE000C00605D56068E96820F48000084360609A
:101EF0000020DBE700100240007000404004424236
:101F00002DE9F0470F46050061D0434E306800F0E0
:101F10000700B84209D2306820F00700384330602B
:101F2000306800F00700B84251D128683B4C810767
:101F300012D5400703D5606840F4E06060602878FF
:101F4000000703D5606840F4605060606068A9686D
:101F500020F0F000084360602878C00728D0686847
:101F6000012810D02168022810D0890700292EDA14
:101F7000616821F0030101436160FFF7ADFE804617
:101F800041F288390DE021688903EFE78901EDE727
:101F9000FFF7A2FEA0EB0801494502D90320BDE8E6
:101FA000F0876068696800F00C00B0EB810FEFD13A
:101FB000306800F00700B8420BD9306820F0070005
:101FC00038433060306800F00700B84201D001208B
:101FD000E5E72878400705D56068E96820F4E06007
:101FE000084360602878000706D56068296920F4F6
:101FF000605040EAC100606000F038F86168084A4B
:10200000C1F30311515CC8400649086006480068E6
:10201000FFF782FE0020C2E70020024000100240CD
:10202000444400081C000020140000200448054916
:1020300000684968044AC1F30221515CC8407047F6
:102040001C000020001002405444000804480549C8
:1020500000684968044AC1F3C221515CC840704716
:102060001C00002000100240544400080E4A516831
:102070000E4801F00C03042B11D0082B0FD10C4893
:10208000C1F38343C903C05C0AD55168084AC1F350
:102090004041921E515C054A5043B0FBF1F070473D
:1020A00004494843704700000010024000127A00C3
:1020B0003444000800093D002DE9F84F040070D0B9
:1020C0002078C04DC00749D06868C0F3810001285E
:1020D00007D06868C0F38100022809D16868C0038E
:1020E00006D52868800339D560680028E7D035E038
:1020F0006068B0F5803F0BD010B1B0F5A02F11D0C3
:10210000286820F480302860286820F4802002E0CD
:10211000286840F480302860606890B1FFF7DCFDEB
:1021200006460AE0286840F480202860F0E700BFF7
:10213000FFF7D2FD801B642873D828688003F7D589
:102140000CE0FFF7C9FD064605E000BFFFF7C4FD40
:10215000801B6428F0D828688003F7D420789A4E32
:1021600080074FF001094FF0000839D5686810F07A
:102170000C0F07D06868C0F38100022809D1686895
:10218000C00306D42868800714D52069012808D127
:1021900010E02069B0B1C6F80090FFF79DFD07463A
:1021A00005E00AE1FFF798FDC01B0228C4D82868A3
:1021B0008007F7D52868616920F0F80040EAC1007F
:1021C00028600DE0C6F80080FFF786FD074604E0B2
:1021D000FFF782FDC01B022823D828688007F7D4A8
:1021E000207800072CD57948A169D9B1C0F80090B2
:1021F000FFF772FD074604E0FFF76EFDC01B0228E3
:102200000FD8686A8007F7D571484FF4FA51006813
:10221000B0FBF1F0009000BF0098411E0091FAD28F
:102220000EE080E0C0F80080FFF756FD074604E0AE
:10223000FFF752FDC01B022875D8686A8007F7D4E3
:102240002078400760D5E8690027C00008D4E86915
:1022500040F08050E861E869012700F0805000906C
:102260005C480168C90513D40168834641F4807154
:102270000160FFF731FD824606E000BFFFF72CFD4D
:10228000A0EB0A0064284ED8DBF80000C005F5D5A5
:10229000E06801280AD008B1052813D0286A20F088
:1022A00001002862286A20F0040002E0286A40F059
:1022B00001002862E06841F2883B98B1FFF70CFD0D
:1022C00082460BE0286A40F004002862EEE700BF77
:1022D000FFF702FDA0EB0A0159455AD8286A80078A
:1022E000F6D50CE0FFF7F8FC824605E0FFF7F4FCBA
:1022F000A0EB0A0159454CD8286A8007F6D41FB1D3
:10230000E86920F08050E861E06988B36968C1F34A
:102310008101022944D00228C6F8608004D0FFF76A
:10232000DBFC044638E034E0FFF7D6FC074604E067
:10233000FFF7D2FCC01B02282BD828688001F7D4F5
:10234000206AB0F5803F05D16868A16820F40030AC
:1023500008436860D4E908010843696821F47411EE
:1023600008436860C6F86090FFF7B6FC044606E0D4
:1023700025E000BFFFF7B0FC001B022809D8286841
:102380008001F7D51BE000BFFFF7A6FC001B022869
:1023900002D90320BDE8F88F28688001F4D40EE04C
:1023A0000128F7D06868226A00F48031914204D194
:1023B000616A00F47010884201D00120EAE7002031
:1023C000E8E7000000100240000042428004424260
:1023D0001C0000200070004010B5401EB0F1807F4E
:1023E00001D3012010BD4FF0E02460610F21601780
:1023F00001F0B4FB0020A06107202061002010BD87
:102400007047704770B590F83C20012A26D001240F
:1024100080F83C40022280F83D2003685A689D689D
:1024200022F070060A6832435A600D4B02689A42E5
:1024300008D0B2F1804F05D00A4B9A4202D00A4B25
:102440009A4204D1496825F080031943916080F8CD
:102450003D40002180F83C10084670BD022070BD50
:10246000002C0140000400400008004010B50400AA
:1024700003D094F83D0010B107E0012010BD00200A
:1024800084F83C00204600F01FF8022084F83D004C
:10249000211D206801F0A2F8012084F8460084F88C
:1024A0003E0084F83F0084F8400084F8410084F83E
:1024B000420084F8430084F8440084F8450084F81E
:1024C0003D00002010BD000008B500680B4988429F
:1024D00012D10B48816941F4006181618069002259
:1024E00000F40060009011461920FFF761FCBDE880
:1024F00008401920FFF74EBC08BD0000002C014029
:102500000010024090F83D10012901D001207047D1
:10251000022180F83D100168CA6842F00102CA60D9
:1025200000680B49884208D0B0F1804F05D00949B6
:10253000884202D00849884204D1816801F007012D
:10254000062903D0016841F00101016000207047B5
:10255000002C0140000400400008004070B5044613
:1025600090F83C000025012817D0012684F83C6033
:10257000022084F83D002068826822F0770222F46D
:102580007F4282600868502838D00DDC20284FD068
:1025900005DC90B3102811D14AE0022070BD30282C
:1025A00046D040280AD13BE060282FD070280DD0BB
:1025B000B0F5805F03D0B0F5005F12D0012584F83C
:1025C0003D60002084F83C00284670BDCB68D1E90E
:1025D0000121206801F04BF82068816841F0770103
:1025E00009E0CB68D1E90121206801F040F82068BA
:1025F000816841F480418160E1E719E0CA68496877
:10260000206801F0E9F85021206806E0CA684968AE
:10261000206801F0F2F86021206801F032F8CEE77E
:10262000CA684968206801F0D7F840212068F4E7BB
:10263000226801461046F0E72DE9F0410D460400FE
:1026400003D094F83D0018B108E00120BDE8F08106
:10265000002084F83C00204600F040F8022084F876
:102660003D002068816844F2070291438160211D8A
:10267000206800F0B3FF226890689169166A2B68A1
:10268000AF69034340F20330814341EA0721A86860
:10269000EF6908434FF6FC418843E96840EA0720A8
:1026A000014328692F6A000140EA0730084369683E
:1026B0006D6926F0220646EA0515294393602268D3
:1026C000906154F8460B0162012004F81F09E0757F
:1026D0002076E0762077A0750020B7E700B585B0BA
:1026E0000021009101910291039101681B48B1F111
:1026F000804F1BD01A4A914216D1C16941F00401A2
:10270000C161C16901F004010491816941F00801CE
:1027100081618069694600F008000490C020009043
:10272000104800BFFFF7E2F905B000BDC16941F0F4
:102730000101C161C16901F001010491816941F0A8
:10274000040181618069694600F00400049003205F
:102750000090012002900448E4E7000000100240CD
:1027600000080040000C01400008014070B590F8DE
:102770003E60044690F83F5090F8423090F8432075
:10278000022021B104290ED0012E1BD114E0012E0C
:1027900018D1012B16D184F83E0084F842000122A2
:1027A0000021206820E0012D0CD1012A0AD184F8F3
:1027B0003F0084F8430014E0012D03D1012B01D127
:1027C000012A01D0012070BD84F83E0084F83F004A
:1027D00084F8420084F8430001220021206800F0C0
:1027E00039FF01220421206800F034FF20680168CD
:1027F00041F001010160002070BD70472DE9F041FA
:1028000004460068C66805694FF00007A90713D59C
:10281000B10711D5F91E0161012020772068806978
:102820008007204602D0FFF7E8FF04E000F0A4F89C
:10283000204600F049F92777680716D5700714D5A8
:1028400021686FF004000861022020772068806909
:1028500010F4407F204602D0FFF7CFFF04E000F0E5
:102860008BF8204600F030F92777280715D5300778
:1028700013D521686FF008000861042020772068D4
:10288000C0698007204602D0FFF7B7FF04E000F0E0
:1028900073F8204600F018F92777E80616D5F006F9
:1028A00014D521686FF01000086108202077206897
:1028B000C06910F4407F204602D0FFF79EFF04E07D
:1028C00000F05AF8204600F0FFF82777E80708D014
:1028D000F00706D021686FF001000861204600F083
:1028E00043F9280608D5300606D521686FF0800028
:1028F00008612046FFF784FD680608D5700606D5F6
:1029000021686FF040000861204600F039F9A80600
:102910000AD5B00608D521686FF02000086120466E
:10292000BDE8F041FFF76DBDBDE8F08100B585B0B1
:102930000021009101910291039100680B498842A6
:1029400011D10B48816941F00801816180696946B4
:1029500000F00800049003200090022001900390F2
:102960000448FFF7C3F805B000BD000000040040B4
:1029700000100240000C0140704770B5044690F80A
:102980003C0000260D4601280FD0012084F83C00B1
:102990006AB1042A1DD0082A2FD00C2A3FD0012664
:1029A000002084F83C00304670BD022070BD2068D5
:1029B00000F070FE2068816941F0080181612068A3
:1029C000816921F004018161206881692A691143CC
:1029D00011E0206800F086FE2068816941F4006102
:1029E00081612068816921F4806181612068816949
:1029F0002A6941EA02218161D2E7206800F09EFE47
:102A00002068C16941F00801C1612068C16921F0F5
:102A10000401C1612068C1692A69114311E020687D
:102A200000F0B8FE2068C16941F40061C16120680E
:102A3000C16921F48061C1612068C1692A6941EAE4
:102A40000221C161ACE710B5040003D094F83D0049
:102A500010B107E0012010BD002084F83C002046A2
:102A600000F01EF8022084F83D00211D206800F0CF
:102A7000B5FD012084F8460084F83E0084F83F004C
:102A800084F8400084F8410084F8420084F8430050
:102A900084F8440084F8450084F83D00002010BD0F
:102AA00008B500680649884208D10648C16941F066
:102AB0000201C161C06900F00200009008BD000081
:102AC00000040040001002407047000010B50446AA
:102AD000022249B104290ED0082913D094F84100EC
:102AE000012816D0012010BD94F83E000128F9D12C
:102AF00084F83E200FE094F83F000128F2D184F8DA
:102B00003F2008E094F840000128EBD184F84020F1
:102B100001E084F841200122206800F09BFD0F496C
:102B20002068884203D1426C42F40042426420682B
:102B3000884208D0B0F1804F05D00949884202D0C0
:102B40000849884204D1816801F00701062903D0B1
:102B5000016841F001010160002010BD002C01401E
:102B6000000400400008004000680349884202D188
:102B70000249012008707047002C0140000000202D
:102B80007047704770470000F8B501680446086850
:102B9000CA684B6910F00F0F4FF0000559D003F0D1
:102BA000010602F49077374365D0C10705D0D105FF
:102BB00003D5616C41F001016164410705D5D90776
:102BC00003D0616C41F002016164810705D5D9072A
:102BD00003D0616C41F004016164010707D502F084
:102BE0002001314303D0616C41F008016164616CE4
:102BF00000293AD0800604D5900602D5204600F080
:102C00003DFE20684069616CC0F38010090700D464
:102C100060B3204600F00BFE20684069400621D5D5
:102C20002068143050E8001F21F0400140E80012F5
:102C3000002AF5D1E06BA8B16D494163E06BFEF766
:102C4000F7FE002811D0E06B416B01B0BDE8F04009
:102C5000084783060FD593060DD52046BDE8F840FA
:102C600000F00CBE2046FFF78DFFF8BD2046FFF7B1
:102C700089FF6564F8BD266B2023012E7CD1C60632
:102C80007AD5D60678D508684868009048694FF02C
:102C90000206400640D5E16B086840680004000C5D
:102CA000E8D0A28D8242E5D9E085886920282DD020
:102CB00020680C3050E8001F21F4807140E80012B9
:102CC000002AF5D12068143050E8001F21F00101DE
:102CD00040E80012002AF5D12068143050E8001FA7
:102CE00021F0400140E80012002AF5D184F842307A
:102CF000256320680C3050E8001F21F0100140E8E7
:102D00000012002AF5D1E06BFEF76EFE6663A08D1F
:102D1000E18D401A81B22AE0A08DE18D401A81B286
:102D2000E08D0028A6D00029A4D022680C3252E8F9
:102D3000000F20F4907042E80007002FF5D12068C2
:102D4000143050E8002F22F0010240E80027002F45
:102D5000F5D184F84230256320680C3050E8002F0C
:102D600022F0100240E80023002BF5D166632046D4
:102D7000FFF707FFF8BDFFE705062BD5150629D598
:102D800094F841002128F5D1A068B0F5805F01D109
:102D90002069B0B1206A411C216221680078486036
:102DA000E08C401E0004000CE084E3D12068C16880
:102DB00021F08001C1602068C16841F04001C1601C
:102DC000D8E7206A0088C0F308004860206A801CA9
:102DD0002062E5E74006CDD55006CBD5CA6820462F
:102DE00022F04002CA6084F8413000F003F9C1E7E4
:102DF0001F38000870B5040004D094F84100002585
:102E000010B106E0012070BD84F84050204600F06B
:102E100023F8242084F841002068C16821F400517F
:102E2000C160204600F08CFD2068016921F49041CA
:102E300001612068416921F02A0141612068C1686F
:102E400041F40051C1606564202084F8410084F899
:102E500042006563002070BD70B586B00024009408
:102E60000194029403942B4E03682B490220032201
:102E70002A4DB34221D18B6943F480438B618B6926
:102E800003F4804304938B6943F004038B618969E5
:102E9000039201F0040104910102CDE9001069469A
:102EA0002846FEF723FE2815CDE90004694628468A
:102EB0000294FEF71BFE06B070BD194EB342FAD164
:102EC000CB6943F40033CB61CB6903F40033049343
:102ED0008B6943F004038B618969039201F004015B
:102EE00004910421CDE9001069462846FEF7FEFD55
:102EF0000820CDE90004694628460294FEF7F6FD55
:102F0000002211462620FEF753FF2620FEF742FF3F
:102F1000D1E70000003801400010024000080140E5
:102F20000044004090F84230202B01D0022070472E
:102F300021B11AB10023036300F05EBD0120704788
:102F400000680349884201D1FEF7E8BB70470000E2
:102F5000004400402DE9F843044690F841009846AB
:102F600016460D46202802D00220BDE8F88385B120
:102F70007EB100206064212084F84100FEF7ACFEA1
:102F8000A6848146E684A0682027B0F5805F02D041
:102F900003E00120E9E7206910B12E4600250EE08C
:102FA00000260CE08021204600F041FDA8B9C6B102
:102FB00016F8010B21684860E08C401EE084E08C2C
:102FC0004B464FF00002CDF800800028EAD14FF0C8
:102FD0004001204600F02BFD40B184F841700320F1
:102FE000C3E735F8020BC0F30800E3E784F841704B
:102FF0000020BAE77047FEE73EB500241148009470
:10300000019402940E4984600160047304750125E3
:1030100005614FF460214460C161FEF72BFC08B1EB
:10302000FEF7BFFA0620CDE900056946029405487F
:10303000FEF7A2FB002801D0FEF7B3FA3EBD000068
:10304000002401408801002070B586B00024184893
:103050000094019402940394816941F020018161FC
:10306000816901F020010491816941F004018161CD
:10307000816901F004010491816941F008018161D5
:1030800080690C4E00F008004FF470450490002257
:1030900029463046FEF71AFE01200095CDE90104CD
:1030A0000220039069463046FEF720FD06B070BD51
:1030B00000100240000C014010B586B000241748F3
:1030C00000940194029403940494134905940160BC
:1030D00041F61F41C0E901146321C0E903144461B2
:1030E0008461FFF7C3F908B1FEF75BFA4FF4805033
:1030F000009069460948FFF731FA08B1FEF751FA26
:10310000049404A905480594FFF77CF9002801D030
:10311000FEF747FA06B010BD002C0140B8010020B0
:1031200010B58CB024216846FDF73CF90024154801
:1031300009944FF080410A94C0E900144FF6FF71E2
:10314000C0E90241046184610320CDE9000401204B
:10315000CDE902040494CDE9054007946946094885
:103160000894FFF769FA08B1FEF71BFA099409A958
:1031700004480A94FFF746F9002801D0FEF711FA37
:103180000CB010BD0002002010B58AB000240794D6
:103190001C2168460894FDF705F91A481849016092
:1031A0004721C0E9011440F2E731C0E9031484610A
:1031B000FFF749FC08B1FEF7F4F9079407A9114895
:1031C0000894FFF71FF908B1FEF7EBF96020CDE98D
:1031D00000040294082269460A480494FFF7CDFBD4
:1031E00008B1FEF7DEF90C2269460648FFF7C5FB79
:1031F00008B1FEF7D6F90348FFF798FB0AB010BDF7
:10320000000400404802002010B58CB0242168461C
:10321000FDF7C8F800241648099414490A94C0E937
:1032200000144FF6FF71C0E902410461846103207C
:10323000CDE900040120CDE902040494CDE9054064
:10324000079469460A480894FFF7F6F908B1FEF7B3
:10325000A8F9099409A906480A94FFF7D3F80028A9
:1032600001D0FEF79EF90CB010BD00000008004030
:10327000900200200C4810B50A4901604FF4E1317A
:103280004160002181600C22C160C0E904128161AB
:10329000C161FFF7AFFD002803D0BDE81040FEF785
:1032A00080B910BD00380140D80200200C4810B58C
:1032B0000A4901604FF4E1314160002181600C2234
:1032C000C160C0E904128161C161FFF793FD00286C
:1032D00003D0BDE81040FEF764B910BD00440040C3
:1032E00020030020FEE7000010B50446406900F00E
:1032F000CBFE216900F0EAFDBDE81040014900F075
:1033000023BF00009A99193E2DE9F047044608A80A
:103310001D4690E880070020A06060612160E060A9
:103320000B4820610A20A061084616463C21FFF7A1
:103330001DFA6660C4E90757A4F82480C4F82890F1
:103340003046A4F82CA02946BDE8F047FFF7BEBBE5
:103350000000824470B504460D1E006AA18C1BDD7E
:103360000122FEF7B3FCA18D0022A06AFEF7AEFC9D
:10337000E06938B1042809D008286068006809D0DD
:10338000056470BD60680068456370BD6068006872
:10339000856370BDC56370BD1CDA0022FEF796FC24
:1033A000A18D0122A06AFEF791FC6842E1691BE051
:1033B00061680968486370BD042905D008296168FF
:1033C000096805D0086470BD61680968886370BDCC
:1033D000C86370BD0122FEF779FCA18D0122A06AAD
:1033E000FEF774FCE16900200029E5D1E0E7000068
:1033F0002DE9F041054600680068406A06B2A868F9
:10340000341AB4F5004F01DBA4F5803414F5004FF5
:1034100001DA04F58034686920446861A86900F025
:103420004BFE0A4900F052FD0746204600F02CFEF4
:10343000296900F04BFD394600F048FD044900F0D1
:1034400083FEC5E90260BDE8F081000000007A4417
:1034500000007042FEE72DE9F0410446D4E9030183
:1034600000F070FF0146E061A06A00F0C1FCA062BC
:10347000616900F035FF01D26069A062A169A06AAC
:1034800000F02EFE01D2A069A062D4E907512846BF
:1034900000F058FF0146A06800F056FE0746A16AFA
:1034A000606800F051FE06462946206800F04CFE98
:1034B000314600F09DFC394600F09AFC05466169F2
:1034C00000F00EFF00D26569A169284600F008FEF1
:1034D00000D2A569E069E56220622846BDE8F08176
:1034E00030B5DDE90345446180E80E000021C1608C
:1034F000C0E906510162816230BD7047704700002B
:1035000070B50D4C606900F0BFFD0C490861E068C2
:103510000B4C0C49206100F017FE05460A49606A11
:1035200000F012FE294600F063FC60620348FFF7DA
:1035300092FF0649086070BDC80000209800002076
:1035400038000020CCCC4C3ECDCC4C3F04000020B9
:10355000FEF7C8BB30B593B028216846FCF722FFC0
:1035600014210AA8FCF71EFF002501200F951095D5
:103570001195010412958DE8230004904FF4E0109A
:10358000CDE90810022407946846FEF795FD08B1BE
:1035900072B6FEE70AA90F2081E831004FF480607F
:1035A000CDE90D0502210AA8FEF7AAFC08B172B602
:1035B000FEE74FF4004011900F940FA8FEF72AFC8D
:1035C000002801D072B6FEE713B030BD704700008E
:1035D0000148FFF713B90000B8010020F0B50268F8
:1035E000194B1A4C1A4D4FF08047984205D0B842FB
:1035F00003D0A04201D0A84203D122F070064A684D
:103600003243984205D0B84203D0A04201D0A8422C
:1036100003D122F44074CA6822434C6922F080022C
:10362000224302608A68C2620A688262984201D1BB
:1036300009690163012141610169C90703D0016979
:1036400021F001010161F0BD002C014000040040A7
:103650000008004010B501F01F030121046A9940E1
:103660008C430462016A9A401143016210BD10B597
:10367000846842EA032224F47F440A43224382609E
:1036800010BD826822F070020A4342F00701816097
:103690007047000030B5036A026A22F0010202623C
:1036A0004268846924F073050C682C4323F00205FA
:1036B0008B682B430A4DA8420BD123F00805CB6839
:1036C00022F440722B434D6923F0040315438A69A9
:1036D0002A434260846149684163036230BD00004F
:1036E000002C014030B5026A036A23F01003036224
:1036F000436884690D6824F4E64444EA05248D682F
:1037000022F0200242EA05120B4DA8420ED1CD68EC
:1037100022F0800242EA05124D6923F4406343EA35
:1037200085038D6922F0400243EA8503436084618A
:1037300049688163026230BD002C014030B5036AE4
:10374000026A22F4807202624268C46923F4007340
:1037500024F073050C682C438D6843EA05230C4D57
:10376000A8420ED1CD6823F4006343EA05234D69D6
:1037700022F4405242EA05128D6923F4806342EA42
:1037800005124260C4614968C163036230BD000034
:10379000002C014030B5046A026A22F480520262B1
:1037A0004268C3690D6823F4E64343EA05238D6844
:1037B00024F4005444EA0534064DA84204D14D696E
:1037C00022F4804242EA85124260C3614968016482
:1037D000046230BD002C014010B5036A046A24F075
:1037E00001040462846924F0F00444EA021423F022
:1037F0000A020A438461026210BD10B5036A046ABA
:1038000024F010040462846923F0A00324F47044BB
:1038100044EA023243EA01118261016210BD10B52F
:10382000406A0021C185C184FFF7ACF910BD016871
:103830000C3151E8002F22F4907241E80023002B54
:10384000F5D10168143151E8002F22F0010241E85E
:103850000023002BF5D1016B012909D101680C313E
:1038600051E8002F22F0100241E80023002BF5D18F
:10387000202180F8421000210163704708B590F8BC
:103880004210222901D0022008BD82684FF48053E3
:103890009A4201D1016921B1816A9A421BD04AB191
:1038A0000AE00268816A5268C2F308020A80816AEB
:1038B000891C08E0026972B10268526802F07F0256
:1038C0000A70816A491C8162C18D491E0904090C74
:1038D000C18503D01BE002685268F1E70168CA683D
:1038E00022F02002CA600168CA6822F48072CA60AD
:1038F00001684A6922F001024A61202180F84210E1
:1039000000214163026B012A03D0FFF719FB00205D
:1039100008BD016301680C3151E8002F22F010024C
:1039200041E80023002BF5D101680A68D20602D5D0
:103930000A6849680091818DFFF723F9E7E70000E5
:1039400070B5044600680169E26821F440511143F2
:1039500001612169A0680843616908432168CA6858
:1039600041F20C639A430243CA6020684169A2692C
:1039700021F44071114341611E492068884202D1FF
:10398000FEF764FB01E0FEF751FB00EBC00101EB29
:103990000012606864218000B2FBF0F3B3FBF1F326
:1039A0006FF018067343B2FBF0F5B2FBF0F605EBCF
:1039B0008305322303EB0515B5FBF1F5B6FBF1F6F4
:1039C00005F0F00505EB0615B2FBF0F6B2FBF0F0E2
:1039D000B0FBF1F06FF01802504306EB800003EBF0
:1039E0000010B0FBF1F0216800F00F00284488605F
:1039F00070BD00000038014081628285C2850021CF
:103A00004164222180F84210016921B10168CA682D
:103A100042F48072CA6001684A6942F001024A6158
:103A20000068C16841F02001C160002070472DE9A5
:103A3000F843984617460D460446089E24E0701C3D
:103A400022D0FEF749F9A0EB0800B0421AD8CEB157
:103A50002068C168490717D5802D15D0402D13D097
:103A60000168C94309070FD4016800254068009028
:103A70002046FFF7DCFE0820606484F840500120F7
:103A8000BDE8F8830320FBE72068006835EA000002
:103A900004D00020B842D2D00020F1E70120F9E79D
:103AA0000148FFF771B8000020030020FEE7000086
:103AB0000149086070470000200000202DE9FC4704
:103AC000DFF8608081460F46D8F80000002827D034
:103AD00000242546144E0EE059F8250000F05CF94C
:103AE000CDE90001301911A26421FCF77FFB002809
:103AF00003DD04446D1CBD42EEDB002C10DD3119EA
:103B00000D2001F8010C0A203055641CD8F8000083
:103B100002B0A2B2BDE8F04764230349FFF71ABA26
:103B2000BDE8FC872000002068030020252E3266B7
:103B30002C000000490050EAC12018BF04204A0DA3
:103B400018BF40F0010040F2FF72B2EB515F08BFB6
:103B500040F00200012808BF052070470907090E40
:103B6000002804DB00F1E02080F80014704700F02A
:103B70000F0000F1E02080F8141D704730380A284B
:103B800001D2012070470020704700002DE9F0416C
:103B9000804621480022C0E90321FFF75CFC05466E
:103BA0001E48FFF725FC1E48FFF722FC1B481D4C52
:103BB0001D4FC6681A4826612946C06838614046CC
:103BC00000F0C0FBE0602946404600F011F9F860C3
:103BD0001649304600F0B8FA05461549606A00F00B
:103BE000B3FA294600F004F960622046FFF733FC7F
:103BF00000F02EFA04B23846FFF72DFC00F028FA48
:103C000005B221460548FFF7A5FB2946BDE8F0416E
:103C10000348FFF79FBB000028010020C8000020D8
:103C2000580100203800002068000020CCCC4C3E19
:103C3000CDCC4C3F1FB5FEF75DF8FFF78BFCFFF7CF
:103C400003FAFFF7D9F9FFF76BFAFFF7DDFAFFF791
:103C500033FAFFF799FAFFF70DFBFFF727FBFDF7A4
:103C60000DFC2E48FEF74EFCFDF73EFC0121002026
:103C7000FDF734FD44F62060FDF726FF284C294E61
:103C800000252078012841D125702748FFF72CFB1B
:103C9000264988421CDD0020FDF7BAFC40F605519C
:103CA000884215D90020FDF7B3FCB0F56C6F0FD832
:103CB000607858B91C481E493038006900F098F8FF
:103CC00000F0C6F9FDF764FC01206070FFF718FCF6
:103CD000D4E90101FFF75AFFE068401CE0600528C5
:103CE00014DB1148E5609038C168009100690190CB
:103CF00002216846FFF7E2FE0B486038C168029176
:103D000000690390022102A8FFF7D8FE307801284D
:103D1000B7D1FDF749FCA0603570B2E7B8010020CB
:103D20000000002024000020C800002000002041E6
:103D30000000344510B500290AD00878002807D0C3
:103D400005487844FCF75EFF002801D0002010BD34
:103D50000248784410BD0000EE070000E6070000AE
:103D600010B500290AD00878002807D00548784403
:103D7000FCF748FF002801D0002010BD024878441D
:103D800010BD0000DE070000D60700000808A0F5FF
:103D900000114FEA3101704743004FEAD30C4FEA5C
:103DA0003C0C43401FBF40070CF1605113F0FE4F25
:103DB00070471CF0006F03D100200CF000417047E9
:103DC0000CF0004343EA507010B540EACC0000F01C
:103DD0003CFA00BF000000924FEA0001FFF7D6BF97
:103DE0004FF000414FF00000A1F5002170470000A6
:103DF00090EA010F48BF81F0004100F1AA82421A07
:103E00003CBF801A89184FEAD0524FF07F4C1CEA11
:103E1000410FA2EBD15318BF9CEA026F00F03B8028
:103E20004FF0004C4CEA00204CEA012121FA03FC3F
:103E300010EB0C0C1ED202F1FF325FEA1C2040EBAB
:103E4000C25038BF70471CF07F0F4FEA400C18BFBC
:103E5000BCF17F4F38BF7047C3F12003994008BFC2
:103E600020F00100BCF17F4F38BF7047A0F1C04087
:103E700000F031BA4FEA3C00000A40EBC25028BFC4
:103E80001CF0FF0F4FEA400CE6D018BFBCF17F4F8B
:103E900038BF7047EAE79CEA026F05D010EA5C0F72
:103EA00008BF00F00040704710B500F0CEF900BF29
:103EB00064FBBE3E401058BFC0F14040491058BF9F
:103EC000C1F140418142EFF3008070474FF47F0C15
:103ED0001CEAD0121EBF1CEAD11392EA0C0F93EA1F
:103EE0000C0F00F0858090EA010F48BF42F4807209
:103EF00040F4000C41F400002CF07F4120F07F40A2
:103F000000B58142A2EB03020FF2081CACEB504E4D
:103F1000C0F100009EF800E04FEA4E0E00FB0EFCE0
:103F200038BF49004FEA2C1C02F5FA020CFB0EF3D5
:103F30004FEACE1E4FEA112C4FEAC1210EEB635E11
:103F400042EB22420EFB0CFC4FEA1C5300FB031118
:103F50004FEA112C4FEA01310EFB0CFC4FEADC4C0E
:103F600000FB0C11C14228BF09184CEB03335DF86C
:103F700004EB10EB410143EBC250B2F57C0F38BFAC
:103F8000704729D512F0F00F1CBF00F1C04000F0BF
:103F900000407047008182838485868788898B8C66
:103FA0008D8E8F919293959697999A9C9D9FA0A2A2
:103FB000A3A5A7A8AAACAEB0B2B3B5B7B9BCBEC0F2
:103FC000C2C5C7C9CCCED1D4D7D9DCDFE2E6E9EC93
:103FD000F0F3F7FAFE0000004FEA400C0CF1807C91
:103FE000BCF17E4F28BF7047B0F1C04000F073B9FC
:103FF00090EA010F0CEAD11348BF42F48072624587
:1040000038BF634507D213F47F0F16D080EA010052
:1040100000F00040704710B500F017F9097EFC3E33
:1040200000F005B880EA010000F00040704780EA27
:10403000010000F0004000F04EB912F47F0F04BF01
:104040000248704780EA010000F045B90000C07FD7
:1040500041000B0ED3F19E0208D950F400034FEA41
:10406000032323FA02F048BF4042704710B500F026
:10407000ECF800BF49922480002070476FF00042A6
:1040800082EA20007047000010F0004148BF404223
:10409000B0FA80F310FA03F2C3F19D030BD051EA9A
:1040A000C35101EB1220530638BF704700F10100E5
:1040B00008BF20F001007047B0FA80F310FA03F255
:1040C000C3F19D030AD0D90501EB1220530638BF76
:1040D000704700F1010008BF20F0010070470000A8
:1040E00050EA010C00F113801CF5000F58BFBCF51D
:1040F000000F01D48842704707D710F5000F58BF52
:1041000011F5000F15D488427047894270471CF59D
:10411000000F04D5BCF5000FF7D5814270474FF072
:10412000807C1CEB400F38BF1CEB410F01D2814259
:10413000704710B500F089F8922449004FF0005004
:104140004FF08051FFF7B6BE4FF47F0C1CEAD0123F
:104150001EBF1CEAD11392EA0C0F93EA0C0F00F079
:10416000478090EA010F48BF42F480724FF0004C44
:104170004CEA00204CEA012102EB0302A0FB0113F0
:10418000A2F50002002918BF43F001035B0028BF1D
:104190004FEA330342EB22425FEA132C4CEBC2504E
:1041A0002EBFBCEB436FB2F57C0F70474FEA036C38
:1041B000BCF1004F08BF20F00100B2F57C0F38BF02
:1041C00070470BD582F0FF0212F5803FC8BF7047E1
:1041D00000F1C040D8BF00F00040704700F5000C6F
:1041E0005FEA4C0C48BF7047B0F1C04000F073B8B4
:1041F00090EA010F0CEAD11348BF42F48072624585
:1042000038BF634504D280EA010000F000407047E7
:1042100010B500F01AF800BF8900013E00F007B8A1
:1042200000F009B85FEA410C5FEA1C6C08D080EA34
:10423000010000F050B85FEA400C5FEA1C6CF6D158
:104240004FF00040A0F5800070470EF1020E2EF0F6
:10425000030E5EF8044B244204D44FEA4102B2F14B
:104260007F4F11D84FEA4003B3F17F4F0CD80ED1E6
:104270004FEAD07CB2F17F4F0CEB4C0C0CF1020CEE
:1042800008BF4CEBD17C04E04FF0080C01E04FEA92
:10429000D17C0CEB4C0324FA03F404F00704B4F1D2
:1042A000040C06D20EEB840CBDE810404CF0010C5F
:1042B0006047DFE80CF0070802024FF00040A0F56D
:1042C000800010BD0846420018BFD2F1807288BF3E
:1042D00000F0004010BDFF2141EAD050C0057047FA
:1042E00051EA000C00F113801CF5000F58BFBCF51B
:1042F000000F01D48142704707D711F5000F58BF56
:1043000010F5000F15D481427047894270471CF5A3
:10431000000F04D5BCF5000FF7D5884270474FF069
:10432000807C1CEB410F38BF1CEB400F01D2884250
:10433000704780EA010081EA000180EA0100FFF78E
:10434000F8BE000090EA010F48BF81F000413FF540
:1043500056AD421A04D882F00042A0EB020011448C
:104360004FEAD0524FF07F4C1CEA410FA2EBD153E1
:1043700018BF9CEA026F4AD04FF0004C4CEA002074
:104380004CEA012121FA03FCB0EB0C0C0FD412F023
:10439000FE0F36D05FEA4C001DD5001240EBC25034
:1043A00038BF70471CF03F0F18BF70470BE0A2F1F9
:1043B00001025FEA1C2040EBC25038BF70471CF07E
:1043C0007F0F18BF7047C3F12003994014BF401EF0
:1043D00020F00100704780084FEA122308BF7047A1
:1043E000B0FA80FCA2EB0C02CCF1280C60FA0CF0C5
:1043F00093EA122F04BF00EBC25070474FEAC3701C
:104400007047130A5FEADC1008BF7047F6E79CEAC2
:10441000026F04D010EA5C0F08BF0020704710B58F
:10442000FFF713FF40DFF63E81F000407047FCF7D6
:10443000C0B8010202030405060708090A0B0C0DA7
:104440000E0F101000000000000000000102030425
:10445000060708090000000001020304000060C014
:10446000000020C00000C0BF000000BF0000003FEF
:104470000000C03F000020400000604002400000FB
:10448000000000A00000000005400000000000C87F
:10449000000000000C4000000000409C00000000F4
:1044A000194000000020BCBE0000000034400000A5
:1044B000BFC91B8E00000004B5400000504BCFD098
:1044C0006607E2CF010000006C4100003E8251AA65
:1044D000DFEEA73401000000D9420000DCB5A0E205
:1044E0003A301F97FFFFFFFFB4450000FD25A0C82D
:1044F000E9A3C14FFFFFFFFFFF3F00000000008066
:1045000000000000FF3F00000000008000000000ED
:104510005C46000800000020380000002801000868
:104520009446000838000020480A000044010008B2
:104530001C00000043000000F8FFFFFF0C0000001B
:104540000E0000000F0000002E000000100100000F
:1045500043000000F8FFFFFF004040404040404063
:104560004040414141414140404040404040404046
:1045700040404040404040404005020202020202EA
:104580000202020202020202022020202020202039
:10459000202020020202020202029090909090904D
:1045A000101010101010101010101010101010100B
:1045B000101010100202020202028888888888887F
:1045C000080808080808080808080808080808086B
:1045D0000808080802020202400000000000000073
:1045E00000000000000000000000000000000000CB
:1045F00000000000000000000000000000000000BB
:1046000000000000000000000000000000000000AA
:10461000000000000000000000000000000000009A
:10462000000000000000000000000000000000008A
:10463000000000000000000000000000000000007A
:10464000000000000000000000000000000000006A
:10465000000000000000000000000000000000005A
:104660000000704200000000000000000100000097
:10467000100000000000000000127A00000000009E
:10468000000000000000000000000000000000002A
:044690000000000026
:04000005080000ED02
:00000001FF
